:020000040000fa
:080000000001040000000000f3
:020000040000fa
:100008009a0100009a0100009a0100009a0100007c
:100018009a0100009a0100009a0100009a0100006c
:100028009a0100009a0100009a0100009a0100005c
:100038009a0100009a0100003a13000074130000ae
:100048009a0100009e130000961300009a01000018
:100058009a0100009a0100009a0100009a0100002c
:100068009a0100009a0100009a0100009a0100001c
:100078009a0100009a0100009a0100009a0100000c
:100088009a0100009a0100009a0100009a010000fc
:100098009a0100009a0100009a0100009a010000ec
:1000a8009a0100009a0100009a0100009a010000dc
:1000b8009a0100009a0100009a0100009a010000cc
:1000c8009a0100009a0100009a0100009a010000bc
:1000d8009a0100009a0100009a0100009a010000ac
:1000e8009a0100009a0100009a0100009a0100009c
:0800f8009a0100009a010000ca
:020000040000fa
:100108009a0100009a0100009a0100009a0100007b
:100118009a0100009a0100009a0100009a0100006b
:100128009a0100009a0100009a0100009a0100005b
:100138009a0100009a0100003a13000074130000ad
:100148009a0100009e130000961300009a01000017
:100158009a0100009a0100009a0100009a0100002b
:100168009a0100009a0100009a0100009a0100001b
:100178009a0100009a0100009a0100009a0100000b
:100188009a0100009a0100009a0100009a010000fb
:100198009a0100009a0100009a0100009a010000eb
:1001a8009a0100009a0100009a0100009a010000db
:1001b8009a0100009a0100009a0100009a010000cb
:1001c8009a0100009a0100009a0100009a010000bb
:1001d8009a0100009a0100009a0100009a010000ab
:1001e8009a0100009a0100009a0100009a0100009b
:0801f8009a0100009a010000c9
:020000040000fa
:100200006f8520000e9f20000e0188000000000076
:10021000000020000000e000020032000001200089
:10022000200288000c000700c047210001002000c8
:1002300011000700000020000000e0000200320072
:100240000000020000000000361402000000000060
:100250000040da000000fe004440a9000000200039
:100260000000e0000300320000002000a001880030
:100270004440a8000000060091018800800078003a
:100280000000eb0015003700e280400032a0b4000f
:100290009101ba00e280400032a0b4009102ba009d
:1002a000e280400032a0b4000002eb00472bde00e9
:1002b000f507b200602ce10004003a000059eb00a1
:1002c0008301e900fdff3e00040037006128e100e2
:1002d000010032000082eb00040007001101ba00a7
:1002e0000200e000e8ff3a00000006003159ba00c1
:1002f0008301e9000c0032002159ba008301e900b2
:10030000080032000400e00003003a00e2804000f0
:1003100032a0b400f5ff370011d9ba008301e9001b
:10032000faff3a008100e800e180400032a0b4000a
:10033000000006000040da000000fe003200f80075
:10034000910188000008bb00410424006210e10014
:1003500004003200000220000010e1000a003a0010
:1003600051042400013b88000500fc0051052000d9
:10037000313b8800a10a2000313b880061e7a800da
:1003800000000000000000003200f900000006003c
:100390003200f80060042400003b8800f2ff3700c0
:1003a0003200f8009101880041002400013b8800e0
:1003b0000208bb00ecff37003200f8009101880012
:1003c00051002400013b8800030120003218bb00cb
:1003d0008301e900fdff3a00e3ff370003f0a200cc
:1003e000889fbe008a9fbe008c1f78000601070010
:1003f0000d0133006450e1004f0032006420e10041
:100400005200320003826c0007003b000905d00057
:100410000306d000820f54000c065d000200390074
:1004200002003200890178000306780085825500b9
:1004300004003d000003fd008103fd008502ea0089
:100440008b854200840f720002003b0060001000a8
:10045000e08018006011b8000005eb007a28e10088
:100460000a00390006007800c75ddd00f707b2001a
:10047000878075002d003700828171000a017800a5
:10048000610560008180d1000080d3008502e90011
:10049000f9ff3b00060440008784480002003b004f
:1004a00060041400e0841c000988a30007003200e7
:1004b0008a81710082817100610164008904d10028
:1004c0000884d3008b05e800170037000978a300e3
:1004d00013003a000b00e000130034008b05e90024
:1004e0000804440089844c000a4474000978a3007d
:1004f0000d003a000b00e000070034008b05e90016
:100500000804440089844c0001003a000b002000dc
:100510000978a300f7ff32000001eb00020037006a
:10052000828171000a0178007c0007000cf0a700ae
:1005300001f0a000c50037006420e10002003a008d
:10054000838f6c00c50033000801be000200be00ae
:10055000be003700889fbe008a9fbe008c1f7800b7
:10056000a9000700b000330003866c006450e1006e
:100570002e0032006420e100330032006150e100bf
:100580002f0032006120e1003100320085855500e6
:10059000eb07b00009002000080420000500370028
:1005a0000804440089844c000a003100060343001b
:1005b00087834b000001530081815b00f8ff33000b
:1005c0000203be000800a0000804440089844c0017
:1005d000f6ff3900c639dd008301730001003200e7
:1005e000130020008904d1000884d3000998a300d7
:1005f000050032000800a7000300a0008904d10014
:100600000884d3008b05e8008904d1000884d30056
:100610000001eb000281d2004000070001f0a100c0
:100620000cf0a70001f0a000880037006420e10072
:100630008a0032000801be000200be00f7ff37004a
:100640006120e100850032006000b800f3ff370050
:100650000000200001f82700f0ff3700839f6800aa
:100660000100e00002003d0060001000e080180082
:100670000300e00002003d0060011100e08119006c
:10068000ad0007004f00e00002003b0060001000da
:10069000e08018000000060014002000e10137008f
:1006a000f4ff2f00df0137000001be00410007000a
:1006b0000470a70003f0a10003f8a30013003a00a0
:1006c0006509b10010003200090035006928e10019
:1006d0000200350001002800000005000000400075
:1006e000818048008502e900fcff3a000000060016
:1006f000f88f4200050035008100d1000080d30052
:100700008502e800fcff3a00000006008000eb00d4
:10071000000005006011b800dd01370081002000f5
:10072000618055000b003d000b00200061fe2f0092
:100730000100e1001d00340082817100610164004c
:100740008904d1000884d3000000e800faff3a00d1
:10075000710020006100640003007000020060006e
:100760000900320061044400e0844c000988a500bf
:10077000050032008b05e8006808e10002003a003d
:100780008904d1000884d300f20f20000258e10050
:1007900005003d00c75ddd00f907b20089807500e6
:1007a00008007800000006000bf827008b00780096
:1007b00000000500c70ade00f107b200f50fb20025
:1007c00008003200e1cf4200020032000170a000b8
:1007d00024000500810f70000100320004080500ac
:1007e00044000500810f700002003a00140005006b
:1007f0008502e9000000400081c04800fcff3b008a
:100800000170a000240005000004be00e9ff0700fd
:100810000003be000405be000200be00e5ff0700a5
:10082000844f7500000006000200be006450e10025
:10083000050036006420e100020036000968a300cc
:1008400001003a000800be000160a0004f067800d9
:100850004f05be004f04be0000000600f0ff2f0051
:10086000f1ff2700f9ff3700889fbe008a9fbe0076
:100870008c1f7800e4ff0700ebff330003866c0059
:100880006450e100240032006420e10027003200bf
:100890006150e100220032006120e10021003200bd
:1008a0008b854200eb07b1000134b800003ab80074
:1008b0000804420089844a00013ab8000030b800b8
:1008c0008880400009014a00040033000000400015
:1008d00081804800020149008b05e900c909dd005b
:1008e000830170000100320013002000c814de00f4
:1008f0004814dd004709de001200b200c808de001f
:100900000884700085ff070001f0a1000cf0a7002b
:1009100001f0a000cdff37006120e100cfff3200e1
:100920000801be000200be00f7ff37006150e10081
:10093000fcff3a00c9ff37006022b8000602200021
:100940000000d0008180d2000482d2008582d200d3
:100950000000a0000202520083825a00030031000e
:100960000202420083824a000000a1000603e9005f
:10097000f3ff3a0000000600889fbe008a9fbe0079
:1009800030044200b0844a0030054b0090854b0093
:100990006000b1000898be000a90be000440e1006b
:1009a00005c8e10006d0e10007d8e10002003100ef
:1009b000680040001008e8004f05be004f04be006c
:1009c00000000600889fbe008a9fbe003004be0063
:1009d0002005be000418540005985c0006185d0050
:1009e00007985d00110020000440e10005c8e10007
:1009f00006d0e10007d8e100010039008000eb00db
:100a0000108810004f05be004f04be000000060015
:100a10001200fa00889fbe008a9fbe008c9fbe0015
:100a2000e0b79f00f1b79f0082bf9f0093bf9f0078
:100a30000605be000404be000000eb00d0b79f0016
:100a4000c0b79f00b0b79f00a0b79f0090b79f00ae
:100a50000006eb005fb19700cfb097008201410024
:100a60003fb097000200e00004003d00370007009f
:100a70007e805700c0ff07000300370033000700e7
:100a80007e805700cfff0700dfb697000d00e00023
:100a90000c0035006fb29700ffb297000fbb9700b4
:100aa0009fbb970010002000010020006011b800db
:100ab000000272008182720002037300838373005c
:100ac0001b0007000c06e80001042000810f5600ff
:100ad000e0ff3a000d00e00004003d000802be0007
:100ae0000a03be007e805700a3ff07005fa897009f
:100af0000000e00005003a001fb29700afb2970077
:100b00003fb39700cfb39700090007006fb097007d
:100b1000ffb097000fb997009fb997004f06be002e
:100b20004f05be004f04be000080fa000000060022
:100b30000100070000000600a4b79f00b5b79f00a2
:100b4000c6b79f00d7b79f00000006004f09de0020
:100b500082817100b3b79f004f01de0081804000a9
:100b600082807000a1b79f008fb097004f09de0010
:100b7000000040000200700090b79f007fa897001f
:100b80004f01de00818040008280700081b79f00ad
:100b90000d0007004f3ade00000040000400700026
:100ba000f0af9f00080007000402420085824a005f
:100bb00006034b0087834b00dfff07000802be00df
:100bc0000a03be00000006002fb29700bfb29700d4
:100bd0004fb39700dfb3970000000600881f78002e
:100be00018002000881f780089ff07008f87e90020
:100bf0004f04780000000600801feb0084ff070010
:100c00008f87e90000000600889fbe008a9fbe0013
:100c1000e00f5000e08f5800e00f5900e08f5900be
:100c20000c003d006044b8006055b800000054005e
:100c300081805c0002015d0083815d00180020005e
:100c40001500070008003d00180007000004eb0035
:100c5000050037000004eb000f00070002003d0014
:100c60001200070018002000dcff07000800e00069
:100c7000060032006022b8006033b8000000520065
:100c800081805a0002015b0083815b004f05be003a
:100c90004f04be0000000600e00f5200e08f5a0033
:100ca000e00f5b00e08f5b00000006006044b800ce
:100cb0006055b8000402540085825c0006035d00a4
:100cc00087835d0000000600889fbe008a9fbe00eb
:100cd0008c1f7800e00f5000e08f5800e00f5900a3
:100ce000e08f59000d003d006044b8006055b80029
:100cf0000000540081805c0002015d0083815d0082
:100d00001c0020000820e10009a8e1000ab0e10071
:100d10000bb8e1000d003d00080037000006eb00b5
:100d2000e00f5200e08f5a00e00f5b00e08f5b00a5
:100d300006003d006044b8006055b800040254004d
:100d400085825c0006035d0087835d00aaff0700c3
:100d50000c00e000060032006022b8006033b800ea
:100d60000000520081805a0002015b0083815b0019
:100d70004f0678004f05be004f04be00000006007d
:100d8000889fbe008a9fbe008c1f78000006eb0083
:100d9000e00f5000e08f5800e00f5900e08f59003d
:100da00007003d006044b8006055b80000005400e2
:100db00081805c0002015d0083815d001c002000d9
:100dc000e00f5200e08f5a00e00f5b00e08f5b0005
:100dd00007003d006044b8006055b80004025400ac
:100de00085825c0006035d0087835d000c00a20025
:100df000560007000c00e000060032006022b80038
:100e00006033b8000000520081805a0002015b008c
:100e100083815b004f0678004f05be004f04be0083
:100e200000000600889fbe008a9fbe00841f7800d5
:100e300075fe07004f00780011003300f0ff2f000f
:100e4000838f6c0006003b00040565000a00a700c4
:100e50000800370009f0a600100020000800370045
:100e6000820f5400838f5c000300390010002000c3
:100e700001003e000000200009f0a7000000ea0089
:100e80004f05be004f04be000000e0000000060059
:100e9000889fbe008a9fbe0000827000040271001d
:100ea00004827100260032000004be000200be0071
:100eb0006011b8006b092000950220000182cf006c
:100ec0000a0039000541b1000082cf000700390057
:100ed0000541b1000982cf00040039000541b1008d
:100ee0000882cf00010039000541b10005425200df
:100ef000120032000a003b0082817100610164002f
:100f00008100d1000080d3008984d3000884d300fd
:100f10008b05e8000442e800f7ff3a0007003700bd
:100f20000804440089844c00000048008180480087
:100f30008b05e9000442e900f9ff3a00f7fd0700dc
:100f40004f05be004f04be0000000600889fbe0093
:100f50008a9fbe008c9fbe000404b8000506b8003e
:100f60008904460060854e000606b8000a05460062
:100f7000e0854e000706b8008b054600040eb80059
:100f8000890446000a854e00e0854d00050eb80034
:100f90000a0546008b854e00060eb8008b054600fc
:100fa0000416b8000a0546008b854e000516b800e9
:100fb0008b054600041eb8008b0546000800be00e5
:100fc0000a01be004f06be004f05be004f04be0022
:040fd0000000060017
:020000040000fa
:100fd4000000fa00604280000080fa000000060071
:100fe4000000fa00304280000080fa000000060091
:100ff4000000fa003228ef000080fa00000006002a
:101004000600fa004000200001002000150507003a
:101014000000e8008000eb000001be00004828004a
:10102400e10120008cfd07001007980021079800bb
:101034001e019000ae0190004418dd00cc10de00cb
:10104400810070004410dd006011b8000203be008e
:101054000002be0000402200410f20006011b800d1
:10106400e8fe0700000078000000e900a0108800f6
:101074000fe2a9000ee2a9000ec2a8000de2a8002a
:101084000f42a8000d42a8000000eb00000f7800fa
:10109400070037001e0078008000400040832000d5
:1010a400008040008000eb00010878001e0fe8007b
:1010b4001e007800e70f5000f6ff34000080fa00ad
:1010c400000006000200fa00000f78000000000093
:1010d4007110800000202000008060000000e0000b
:1010e400fbff3a009e007800811088000080fa001f
:1010f400000006000a00fa00200798003107980053
:1011040042079800614280002e00900080804000d9
:101114004e009000008040000080e800000f78003e
:1011240020002000a01688005000200001002000ac
:10113400cc040700000040008000eb006011b80000
:1011440004402200450f20006033b8000bff070065
:1011540004242400f50020006033b800a9fe070031
:101164000000be00f5050700f00f2000d5ff0700c2
:10117400f00f2000d3ff07002e009000d1ff0700de
:101184004e0090000080e800ceff0700604280001f
:10119400ccff07000000eb00100798001100370097
:1011a4001e00900000004000be009000008040003f
:1011b40010007800c3ff07001e00900000004000ec
:1011c400be00900000804000900078001e0078006f
:1011d40000804000000f78001e0090000000e8002e
:1011e400100798009e0090004e009000808f5000e1
:1011f400ebff39009e007800001020000001780009
:10120400110009008200d8008000fd00f10f2000c9
:1012140000805000abff070010002000a0168800db
:101224000080fa00000006000000fa00c802a800ce
:101234002104800000082000008060000000e0001d
:1012440027003a0013e1a9000a21ef009041800031
:101254009110800000014000408320000000410004
:1012640001087800a1418000f00f2000808f500019
:10127400020032003228ef0019003700904180004c
:10128400e10f500006003a00b1418000f00f200049
:10129400808f5000020032003228ef001000370027
:1012a40090418000e30f500002003a00d0418000da
:1012b40030428800904180000000e800904188009e
:1012c400904180008000780030428000630040003c
:1012d400808f5000010036000300070013e1a800ce
:1012e4000080fa00000006000400fa003228ef0033
:1012f400c041800020428800e041800040428800d4
:1013040030428000630040008000400040832000a1
:101314000080400010007800504288000000eb007c
:10132400000f78000000eb0010079800140037004d
:101334001e009000650040008000400040832000b3
:1013440000804000900078001e00900000014000e2
:10135400e084200000004100010878001e00900095
:1013640080004000e08420000080400010007800ed
:101374001e0f40001e0090000000e80010079800b7
:10138400304280008080e9001e009000808f500071
:10139400e7ff3e0021428000304280008080400010
:1013a40040428000008040001e0f40009e80ea0002
:1013b400f00f2000008f6000504280009e0f50000c
:1013c40002003a0045000700110037002142800066
:1013d400e00f2000808f50000d003200000120003b
:1013e400010020001f0407000000e0000800320094
:1013f400300020001700070020428000e40047006e
:101404000001eb003bff0700f00f20001100070074
:101414000000eb0010079800090037001e00900040
:101424008000400040832000008040008000eb00ea
:10143400010878001e0090000000e80010079800e2
:101444001e009000e70f5000f4ff36000080fa0001
:10145400000006000200fa00000f78001e00780069
:101464000000e00004003a00614280000004200013
:1014740001007000604288001e007800e30f5000f5
:1014840003003a00604280000040a00060428800ef
:101494001e007800e10f500003003a006042800013
:1014a4000020a000604288001e007800e20f500077
:1014b40003003a00604280000000a00060428800ff
:1014c400f00f20009e007800808f500001003a0049
:1014d4004c28ef000080fa00000006001200fa0019
:1014e4003000200001002000de03070021428000bc
:1014f400810f50000400320021428000e00f2000e0
:10150400808f500014013a0040428000e10f5000e7
:101514000e003a0021428000e00f2000808f50002e
:101524000a0032000001200001002000cd03070062
:101534000000e0000500320020428000e80047007f
:101544000001eb00ebfe070003013700404280007e
:10155400e20f500034003a0021428000e00f2000e6
:10156400808f500030003200000120000100200074
:10157400bc0307000000e0002b0032007042800032
:10158400f70f50000b003e00704280008000eb001b
:10159400b4030700100798009e00900041079800cc
:1015a40020428000e800470012002000d1fe07001e
:1015b400e900370070428000f70f50001100360038
:1015c4007142800040032000808f50000d003e00d7
:1015d4007042800075010700200798007042800067
:1015e40050079800ae0090006107980020428000e8
:1015f400ea00470022002000befe070000000000b1
:10160400d50037000000eb0092ff07002042800065
:10161400ee0047000001eb00b6fe0700f00f2000cb
:101624008cff0700cc00370040428000e30f5000dd
:1016340032003a0070428000f70f500005003e006f
:1016440082428000704280008000eb009f0307000c
:101654000d00370070428000f70f5000080036007c
:101664007142800040032000808f500004003e003f
:101674008142800070428000db00070002003700d6
:101684000000eb0073ff070021428000e00f200000
:10169400808f50000f003200000120000100200064
:1016a40070030700e20f50000a003a007142800004
:1016b4008042800071079800000f9800204280004b
:1016c400ee004700220020008afe0700f00f2000f1
:1016d40060ff070070428000e40f500001003a00f0
:1016e40047fe07007142800030032000808f5000c5
:1016f40099003a00a7010700970037004042800094
:10170400e40f500019003a00404280007042880003
:101714000000eb00000f78000b0037001e0078007b
:1017240080004000e08420000080400090007800a9
:101734001e007800000140000085200000004100e8
:10174400010878001e0fe8009e00780030428000f7
:101754000080e900808f5000f0ff39001100200064
:10176400c0022000a00007007b0037004042800038
:10177400e50f50002f003a00c00220000b010700c3
:10178400e10f500019003a008000eb00c002200075
:101794009500070070428000f70f500005003e00de
:1017a40092428000804280008000eb0047030700e3
:1017b4001000370070428000f70f50000800360018
:1017c4007142800040032000808f500004003e00de
:1017d40091428000804280008300070005003700aa
:1017e4000000eb001bff0700020037000000eb00c5
:1017f40018ff070021428000e00f2000808f500076
:101804000900320000012000010020001503070038
:10181400e20f500004003a0020428000f20047002a
:101824000001eb0033fe0700f00f200009ff070062
:101834004900370040428000e60f500017003a008c
:10184400470307004600070021428000e00f200004
:10185400808f50000e0032000001200001002000a3
:1018640000030700e20f500009003a003000200096
:1018740001002000fb0207003007980072004700b7
:101884000001eb00800078003e00900019fe070084
:10189400f00f2000effe07002f00370041428000c8
:1018a40030082000808f50001a003a00c002200047
:1018b400be0007000000e000040032008000eb00de
:1018c400c002200048000700020037000000eb00bf
:1018d400e0fe070021428000e00f2000808f5000ce
:1018e400090032000001200001002000dd02070091
:1018f400e20f500004003a0020428000f20047004a
:101904000001eb00fbfd0700f00f2000d1fe0700f3
:101914001100370021428000e00f2000808f50002a
:101924000b0032000001200001002000cd0207005e
:10193400e20f500006003a000000eb00c5fe07006d
:1019440020428000f20047000001eb00e9fd07009f
:10195400f00f2000bffe07000080fa000000060020
:101964000000fa000228ef000428ef000628ef0028
:101974000828ef000e28ef001028ef001628ef00cb
:101984001828ef0000022000d04088001c28ef0037
:101994003040800050408800404080006040880013
:1019a40000012000f0408800400120000041880030
:1019b4009001200010418800a09929009111240071
:1019c4002041880031418800a09929009111240008
:1019d4004041880051418800c012200080418800a5
:1019e4000080fa00000006000400fa00000f7800ee
:1019f400110798001e0078006101b80080fe2f00d6
:101a0400f1ff2f0002004000838048000202200002
:101a140003002000820f5000838f58005e003e00b8
:101a24000060010020003700220037005c0037000e
:101a34005b0037005a003700590037002000370098
:101a440022003700240037002600370054003700f6
:101a54005300370052003700510037005000370060
:101a64004f0037004e0037004d0037004c00370060
:101a74004b0037001e00370049003700480037008c
:101a84001e003700200037002200370024003700f2
:101a940026003700280037002a0037002f003700bf
:101aa40034003700390037001e00900010408800d1
:101ab4003c0037001e0090002040880039003700a9
:101ac4001e00900050408800360037001e00900031
:101ad40060408800330037001e009000704088008a
:101ae400300037001e009000804088002d00370031
:101af4001e009000b04088002a0037001e009000ad
:101b0400c0408800270037001e009000d0408800a5
:101b1400240037001e009000e040880021003700b8
:101b24009e009000f14088001e0037009e00900047
:101b3400014188001b0037009e009000114188007d
:101b4400180037001e0090008000eb00f0fa070038
:101b54002041880031418800120037001e009000a7
:101b64008000eb00eafa07004041880051418800f8
:101b74000c0037001e0090008000eb00e4fa070020
:101b84006041880071418800060037009e00900083
:101b94008141880003003700000000000100370085
:101ba400000000000080fa00000006000200fa00b5
:101bb400000f78001e0078006101b80080fe2f003d
:101bc400f1ff2f0002004000838048000202200041
:101bd40003002000820f5000838f580055003e0000
:101be4000060010020003700210037005100370059
:101bf400500037004f0037004e0037001e003700fa
:101c04001f0037002000370021003700490037004b
:101c14004800370020003700210037004500370016
:101c24004400370043003700420037001e003700ed
:101c34001f003700200037003e0037003d0037000a
:101c44001f00370020003700210037002200370032
:101c5400230037002400370025003700290037000f
:101c64002d0037003100370010408000320037006b
:101c74002040800030003700504080002e003700a4
:101c8400604080002c003700704080002a0037003c
:101c94008040800028003700304080002600370054
:101ca400404080002400370090408000220037002c
:101cb400a040800020003700b04080001e003700a4
:101cc400c04080001c003700d04080001a0037005c
:101cd400e040800018003700f04080001600370014
:101ce40000418000140037001041800012003700ca
:101cf40020418000314180006afa0700000078002a
:101d04000d003700404180005141800065fa070012
:101d140000007800080037006041800071418000b5
:101d240060fa07000000780003003700804180005b
:101d3400010037000000eb000080fa0000000600fc
:101d44000200fa00000f7800000420009e007800d2
:101d5400808f500002003a00300020000b00370052
:101d64001e007800f00f500002003a00200020000e
:101d7400060037001e007800e40f500002003a000d
:101d840010002000010037000000eb000080fa0082
:101d9400000006000600fa00889fbe00c1e1a90009
:101da4003003200081ff07008000eb0058fa070091
:101db400008fbe0002002000a34724001e00be00c6
:101dc400e3f90700008fbe002003200077ff07001f
:101dd400200798000240220043b724001e00be00e2
:101de400a0fa07000004be002e0090008000eb0063
:101df40047fa07000001be000800be00d4f907003e
:101e04000200200003f8230073f9070025fa0700f5
:101e140000007800200e8800c221ef00d621ef00d8
:101e2400c1a1a900000e80000000a1000010a100c3
:101e3400000e8800000e80000040a1000050a100a8
:101e44000060a1000070a100000e88002e00900028
:101e5400bbff070000407800634060000080fb0087
:101e6400630060004200dd00020e800031ff2f009d
:101e74008100610001007000000e8800c901a80003
:101e8400c921a800c941a800c881a800c801a800a8
:101e9400c8a1a900c821a900c8c1a900c841a900b6
:101ea400ca41a900ca21a800ca01a900d521a800d5
:101eb400d501a800d561a800d541a800d5a1a800e6
:101ec400d581a8004f04be000080fa00000006007f
:101ed4000c00fa00889fbe005007980030032000d1
:101ee40032ff07008000eb0009fa0700008fbe00f4
:101ef40002002000a34724001e00be0094f907003e
:101f0400008fbe002003200028ff07002007980050
:101f14000240220043b724001e00be0051fa07000d
:101f24000004be002e0090008000eb00f8f90700ca
:101f34000001be000800be0085f907000001be00d4
:101f440026f90700d7f907003007980041079800e1
:101f54005e0090008000eb004e0190000091b900fb
:101f640002017800be019000019ab9008401780052
:101f740003014100be0190000018b80001014100b6
:101f840082007800300798004107980030079800d5
:101f9400410798003e009000ce00900042062000c9
:101fa4000300200063fa07003007980041079800f7
:101fb4003e009000b00e88004f04be000080fa007e
:101fc400000006001200fa00889fbe008003200073
:101fd400f6fe0700000f780030032000f3fe070030
:101fe4008000eb00caf90700100798002107980049
:101ff40002002000a34724001e009000ae009000c1
:1020040053f90700100798002107980020032000c7
:10201400e6fe070030079800e0012000e3fe070019
:102024004800dd0040079800f0012000dffe0700b3
:10203400ce0090000100700040079800ce00900090
:102044001e00780000017800110009008280d80089
:102054000000e8008000eb00adf90700500798008d
:102064006107980002002000031a24005e0090001b
:10207400ee00900036f907005007980061079800b9
:102084000240220043b724001e009000ae009000de
:10209400f4f907000004be003e0090008000eb004d
:1020a4009bf907000001be000800be0028f90700e4
:1020b4000001be00c9f807007af90700700798000c
:1020c400010f98007e0090008e08900090f90700a0
:1020d4005e019000ee019000e2f9070071f907003b
:1020e40070079800010f98007e009000b00e8800e1
:1020f4004f04be000080fa00000006000000fa0051
:10210400f00f2000d3fc0700020007000080fa0053
:10211400000006000800fa00881f7800b9010700d3
:10212400008fbe0002002000a34724001e00be0052
:1021340007f9070020079800310798001e00be0029
:1021440058f907000000780080007800a002200001
:1021540025fe07002e009000be00900051f90700f4
:102164000000780080007800b00220001efe070006
:10217400500320008dfe07008000eb0064f9070087
:1021840018c0b3001e01be0042f907000000e000c1
:10219400010035000044eb000804e00003003200b5
:1021a40020002000abfc07000e0037006003200075
:1021b4007efe07008000eb0055f9070018c0b3004d
:1021c4001e01be0035f907000000e00001003c00dc
:1021d4000044eb000804e00002003200200020006c
:1021e4009cfc07007003200070fe07008000eb00d9
:1021f40047f9070018c0b3002e019000be019000fb
:1022040024f907000000e000010035000044eb0061
:102214000804e00002003200100020008dfc0700da
:102224004f0478000080fa00000006000000fa0065
:10223400800120005dfe0700e10f500009003a0014
:1022440060ff0700c1e1a80000000000010e80004b
:1022540000002800008060000000e000fbff320066
:1022640001003700c1e1a9000080fa000000060067
:102274000400fa001001200001002000790007008a
:10228400000f780052fb070010079800900120000f
:1022940046fe0700e10f500007003a008108800065
:1022a40000002800008060000000e00002003a0006
:1022b400c802a8000a003700900120003bfe070076
:1022c4000000e00006003a008108800000002800b9
:1022d400008060000000e00001003a00c802a9008c
:1022e4001e00780061006000004078000004e000f7
:1022f400060032001e00900061006000004078007b
:102304000004e0000100320011e1a8009e00780002
:10231400648060000000e000050032001e009000b0
:10232400620060000000e0000100320011e1a8003a
:102334009e007800708060000000e000050032001c
:102344001e009000700060000000e00001003200f8
:1023540011e1a800000420001e0060000000e0005d
:10236400060032009e0090000004200000806000ff
:102374000000e0000100320011e1a8000080fa0032
:10238400000006000400fa002001200001002000e3
:1023940034000700000f78000dfb070010079800b9
:1023a4001e00780061006000004078000004e00036
:1023b400080032001e0090006100600000407800b8
:1023c4000004e000030032008000eb0080012000e4
:1023d40085fd07009e007800648060000000e00036
:1023e400070032001e009000620060000000e00060
:1023f400030032008000eb00800120007afd07001a
:102404009e007800708060000000e0000700320049
:102414001e009000700060000000e0000300320025
:102424008000eb00800120006ffd07000004200005
:102434001e0060000000e000080032009e009000d2
:1024440000042000008060000000e000030032006f
:102454008000eb008001200063fd07000080fa008b
:10246400000006000e00fa00881f7800500798004c
:102474006107980000c02f00f1072000008fbe0004
:102484005e009000ee009000000040008180480053
:102494003e014000ae8148000200be0020079800c3
:1024a40031079800f0c7b30032e0b7002e00900067
:1024b400be0090001004ba00480798004e00900037
:1024c4004f0478000080fa00000006000a00fa00b9
:1024d40020079800310798004207980000c02f0099
:1024e400f1072000008fbe002e009000be00900077
:1024f40000004000818048003e014000ae81480059
:102504000200be00220020008bf70700013b800080
:1025140000002800008060000000e000fbff3a009b
:102524004e0190002e009000be009000000040007c
:10253400818048003e024000ae8248000400be0094
:1025440096f70700013b800000002800008060002f
:102554000000e000fbff3a000080fa0000000600e3
:102564000000fa00c200200030002000010020001a
:10257400d6ff0700f20c20004000200001002000dc
:10258400d2ff0700a20f200050002000010020000d
:10259400ceff0700f20f2000e00020000100200021
:1025a400caff070032002000f000200001002000d4
:1025b400c6ff0700220020000001200001002000c7
:1025c400c2ff07004200200010012000010020008b
:1025d400beff07004200200020012000010020006f
:1025e400baff07000080fa00000006000000fa00ad
:1025f40081e0a9008d40a9008d20a80020a127001a
:1026040060088800800880000040a0000050a000fe
:10261400800888001021a9001061a90010c1a90038
:1026240011a1a90011e1a9008cc0a800a086210075
:1026340070088800900880000040a0000050a000ae
:10264400900888001221a90012c1a90013a1a900b1
:1026540013e1a9008ce0a8008540a9008520a90009
:1026640084c0a90084e0a9000080fa0000000600ec
:10267400809fbe00821f78000000fa0084c0a90079
:1026840050c8bf000080fb0061006000421680005b
:10269400e1ff2f00810061000100700040168800f6
:1026a40050c8bf000004a2000080fb000040780076
:1026b40050e8b700904280000000e8009042880093
:1026c40090428000e30f5000020036005228ef00d1
:1026d40011e1a9000080fa004f0178004f00be000c
:1026e400004006003600f800809fbe00829fbe00b6
:1026f400849fbe00869fbe000000fa0084e0a9000b
:1027040013e1a9000a21ef0039fa07000080fa005a
:102714004f03be004f02be004f01be004f00be007b
:102724003600f900004006000000fa008540a900c8
:102734000080fa00004006003600f800809fbe00ca
:10274400829fbe00849fbe00869fbe000000fa00e8
:102754008520a900b4fa07000080fa004f03be00e8
:102764004f02be004f01be004f00be003600f9000c
:10277400004006000000fa00001580000050a00090
:102784000060a0000070a00000158800a042a9000d
:10279400001580000080a1000090a10000158800b1
:1027a400a222ef00a4e2a90021158000f00f2e0060
:1027b4008080600000302000010070002015880037
:1027c4002115800000fc2f00008060000020a00084
:1027d40020158800301580000000a0000010a10022
:1027e4000020a1000030a10030158800d001200095
:1027f40040158800c622a800a1e2a8000080fa00c3
:10280400000006000400fa00a022a8000000000056
:1028140000158000610060000000e000fcff320051
:10282400001480008000eb00b9f707003233230066
:10283400330524000bf8070002002000034824009d
:1028440043f70700008fbe00a2992900930e2400cd
:102854001e00be0003f80700008fbe001e00be006d
:102864000080fa00000006000400fa00000f78005f
:1028740011079800f20c2000400020000100200005
:1028840012ff0700c622ef00d222ef0057ff070015
:1028940011e1a80000000000810880000000280069
:1028a400008060000000e000fbff3a00d4f907005c
:1028b4002bfc070037fd0700aeff070020002000b7
:1028c400a0168800030037000cfe0700adfe0700c9
:1028d40056fe0700f0022000b4fc07000000e000f0
:1028e400f9ff32001efc07000000eb000080fa0034
:0428f40000000600da
:020000040000fa
:1028f800320800001e000000000000000008000070
:102908003200000000000000500800000200000033
:102918000200000001000000520800000200000050
:10292800000000005408000002000000020000003f
:082938009a00000000000000fd
:020000040000fa
:10294000f03fb1000180b10006003500ee03090040
:1029500000000000403fb1000180b100fbff3d00de
:102960001000b000203fb0000200350000800900d8
:08297000000000000000060059
:020000040000fa
:0200000400fffb
:04f800000000000004
:020000040000fa
:0200000401f009
:04000000f7bf000046
:020000040000fa
:0200000401f009
:04000400ff7f00007a
:020000040000fa
:0200000401f009
:040008007c7f0000f9
:020000040000fa
:0200000401f009
:04001400ffff0000ea
:020000040000fa
:0200000401f009
:04001800ffff0000e6
:00000001FF
