:020000040000fa
:080000000001040000000000f3
:020000040000fa
:100008009a0100009a0100009a0100009a0100007c
:100018009a0100009a0100009a0100009a0100006c
:100028009a0100009a0100009a0100009a0100005c
:100038009a0100009a01000096120000da120000ee
:100048009a01000006130000fe1200009a01000049
:100058009a0100009a0100009a0100009a0100002c
:100068009a0100009a0100009a0100009a0100001c
:100078009a0100009a0100009a0100009a0100000c
:100088009a0100009a0100009a0100009a010000fc
:100098009a0100009a0100009a0100009a010000ec
:1000a8009a0100009a0100009a0100009a010000dc
:1000b8009a0100009a0100009a0100009a010000cc
:1000c8009a0100009a0100009a0100009a010000bc
:1000d8009a0100009a0100009a0100009a010000ac
:1000e8009a0100009a0100009a0100009a0100009c
:0800f8009a0100009a010000ca
:020000040000fa
:100108009a0100009a0100009a0100009a0100007b
:100118009a0100009a0100009a0100009a0100006b
:100128009a0100009a0100009a0100009a0100005b
:100138009a0100009a01000096120000da120000ed
:100148009a01000006130000fe1200009a01000048
:100158009a0100009a0100009a0100009a0100002b
:100168009a0100009a0100009a0100009a0100001b
:100178009a0100009a0100009a0100009a0100000b
:100188009a0100009a0100009a0100009a010000fb
:100198009a0100009a0100009a0100009a010000eb
:1001a8009a0100009a0100009a0100009a010000db
:1001b8009a0100009a0100009a0100009a010000cb
:1001c8009a0100009a0100009a0100009a010000bb
:1001d8009a0100009a0100009a0100009a010000ab
:1001e8009a0100009a0100009a0100009a0100009b
:0801f8009a0100009a010000c9
:020000040000fa
:100200006f8420000e9f20000e0188000000000077
:10021000000020000000e000020032000001200089
:10022000200288000c000700a037210001002000f8
:1002300011000700000020000000e0000200320072
:100240000000020000000000241302000000000073
:100250000040da000000fe004440a9000000200039
:100260000000e0000300320000002000a001880030
:100270004440a8000000060091018800800078003a
:100280000000eb0015003700e280400032a0b4000f
:100290009101ba00e280400032a0b4009102ba009d
:1002a000e280400032a0b4000002eb00472bde00e9
:1002b000f507b200602ce10004003a000059eb00a1
:1002c0008301e900fdff3e00040037006128e100e2
:1002d000010032000082eb00040007001101ba00a7
:1002e0000200e000e8ff3a00000006003159ba00c1
:1002f0008301e9000c0032002159ba008301e900b2
:10030000080032000400e00003003a00e2804000f0
:1003100032a0b400f5ff370011d9ba008301e9001b
:10032000faff3a008100e800e180400032a0b4000a
:10033000000006000040da000000fe003200f80075
:10034000910188000008bb00410424006210e10014
:1003500004003200000220000010e1000a003a0010
:1003600051042400013b88000500fc0051052000d9
:10037000313b8800a10a2000313b880061e7a800da
:1003800000000000000000003200f900000006003c
:100390003200f80060042400003b8800f2ff3700c0
:1003a0003200f8009101880041002400013b8800e0
:1003b0000208bb00ecff37003200f8009101880012
:1003c00051002400013b8800030120003218bb00cb
:1003d0008301e900fdff3a00e3ff370003f0a200cc
:1003e000889fbe008a9fbe008c1f78000201070014
:1003f000090133006450e1004f0032006420e10045
:100400005200320003826c0007003b000905d00057
:100410000306d000820f54000c065d000200390074
:1004200002003200890178000306780085825500b9
:1004300004003d000003fd008103fd008502ea0089
:100440008b854200840f720002003b0060001000a8
:10045000e08018006011b8000005eb007a28e10088
:100460000a00390006007800c75ddd00f707b2001a
:10047000878075002d003700828171000a017800a5
:10048000610560008180d1000080d3008502e90011
:10049000f9ff3b00060440008784480002003b004f
:1004a00060041400e0841c000988a30007003200e7
:1004b0008a81710082817100610164008904d10028
:1004c0000884d3008b05e800170037000978a300e3
:1004d00013003a000b00e000130034008b05e90024
:1004e0000804440089844c000a4474000978a3007d
:1004f0000d003a000b00e000070034008b05e90016
:100500000804440089844c0001003a000b002000dc
:100510000978a300f7ff32000001eb00020037006a
:10052000828171000a017800780007000cf0a700b2
:1005300001f0a000c10037006420e10002003a0091
:10054000838f6c00c10033000801be000200be00b2
:10055000ba003700889fbe008a9fbe008c1f7800bb
:10056000a5000700ac00330003866c006450e10076
:100570002e0032006420e100330032006150e100bf
:100580002f0032006120e1003100320085855500e6
:10059000eb07b00009002000080420000500370028
:1005a0000804440089844c000a003100060343001b
:1005b00087834b000001530081815b00f8ff33000b
:1005c0000203be000800a0000804440089844c0017
:1005d000f6ff3900c639dd008301730001003200e7
:1005e000130020008904d1000884d3000998a300d7
:1005f000050032000800a7000300a0008904d10014
:100600000884d3008b05e8008904d1000884d30056
:100610000001eb000281d2003c00070001f0a100c4
:100620000cf0a70001f0a000840037006420e10076
:10063000860032000801be000200be00f7ff37004e
:100640006120e100810032006000b800f3ff370054
:100650000000200001f82700f0ff3700839f6800aa
:100660000100e00002003d0060001000e080180082
:100670000300e00002003d0060011100e08119006c
:10068000a90007004f00e00002003b0060001000de
:10069000e0801800000006000001be0041000700d5
:1006a0000470a70003f0a10003f8a30013003a00b0
:1006b0006509b10010003200090035006928e10029
:1006c0000200350001002800000005000000400085
:1006d000818048008502e900fcff3a000000060026
:1006e000f88f4200050035008100d1000080d30062
:1006f0008502e800fcff3a00000006008000eb00e5
:10070000000005006011b800d4013700810020000e
:10071000618055000b003d000b00200061fe2f00a2
:100720000100e1001d00340082817100610164005c
:100730008904d1000884d3000000e800faff3a00e1
:10074000710020006100640003007000020060007e
:100750000900320061044400e0844c000988a500cf
:10076000050032008b05e8006808e10002003a004d
:100770008904d1000884d300f20f20000258e10060
:1007800005003d00c75ddd00f907b20089807500f6
:1007900008007800000006000bf827008b007800a6
:1007a00000000500c70ade00f107b200f50fb20035
:1007b00008003200e1cf4200020032000170a000c8
:1007c00024000500810f70000100320004080500bc
:1007d00044000500810f700002003a00140005007b
:1007e0008502e9000000400081c04800fcff3b009a
:1007f0000170a000240005000004be00e9ff07000e
:100800000003be000405be000200be00e5ff0700b5
:10081000844f7500000006000200be006450e10035
:10082000050036006420e100020036000968a300dc
:1008300001003a000800be000160a0004f067800e9
:100840004f05be004f04be0000000600f0ff2f0061
:10085000f1ff2700f9ff3700889fbe008a9fbe0086
:100860008c1f7800e4ff0700ebff330003866c0069
:100870006450e100240032006420e10027003200cf
:100880006150e100220032006120e10021003200cd
:100890008b854200eb07b1000134b800003ab80084
:1008a0000804420089844a00013ab8000030b800c8
:1008b0008880400009014a00040033000000400025
:1008c00081804800020149008b05e900c909dd006b
:1008d000830170000100320013002000c814de0004
:1008e0004814dd004709de001200b200c808de002f
:1008f0000884700085ff070001f0a1000cf0a7003c
:1009000001f0a000cdff37006120e100cfff3200f1
:100910000801be000200be00f7ff37006150e10091
:10092000fcff3a00c9ff37006022b8000602200031
:100930000000d0008180d2000482d2008582d200e3
:100940000000a0000202520083825a00030031001e
:100950000202420083824a000000a1000603e9006f
:10096000f3ff3a0000000600889fbe008a9fbe0089
:100970003004be002005be000404440085844c0001
:1009800006054d0087854d000898be000a90be0000
:100990000440e10005c8e10006d0e10007d8e1000d
:1009a00002003100680040001008e8004f05be005a
:1009b0004f04be00000006001000fa00889fbe0031
:1009c0008a9fbe00110020000605be000404be0080
:1009d0003002be002003be00c4b79f00d5b79f0001
:1009e000e6b79f00f7b79f000802520089825a00bd
:1009f0000a035b008b835b0084bf9f0095bf9f0051
:100a0000a6bf9f00b7bf9f000498be000698be0017
:100a10004fb29700dfb297006fb39700ffb3970014
:100a20000820e10009a8e1000ab0e1000bb8e100ec
:100a3000010039008000eb004f05be001088100057
:100a40004f04be000080fa00000006001400fa0007
:100a5000889fbe008a9fbe008c9fbe000006eb00f0
:100a60003e000700ccb79f00bcb79f00acb79f000b
:100a70009cb79f008cb79f000605be000404be0013
:100a80000d0420004fb39700bfb2970086034300c8
:100a90002fb29700e00f530004003d003d00070017
:100aa0000f004000b0ff07000300370039000700c7
:100ab0000f004000c0ff0700cfb2970095bf9f0016
:100ac000e08f5200090035002b00070014002000c1
:100ad000050020006033b8000000720081807200c1
:100ae00002017300838173001c0007000c06e800fc
:100af0008d0f5600e3ff3a001fba9700e00f520037
:100b000005003d000802be000a03be0000fe2f00e3
:100b10000f00400094ff07004faa9700e00f52001b
:100b200008003a000fb497009fb497002fb59700c4
:100b3000bfb59700d8b79f00e9b79f00fab79f00ed
:100b40008bbf9f000c0007004f06be004f05be0084
:100b50004f04be000080fa000000060001000700fc
:100b60000000060090b79f00a1b79f00b2b79f009a
:100b7000c3b79f0000000600010007000000060048
:100b80001fb09700afb097003fb19700cfb197006b
:100b9000000006004f2bde00f9ff0700868373007c
:100ba000858242004f23de00a7b79f008682720035
:100bb0000402420095b79f00ffaa97004f2bde006a
:100bc000858242000602720084b79f006faa9700d8
:100bd0004f23de000402420086827200f5af9f00c0
:100be0004f18de0000027200e5ff0700e4af9f002f
:100bf00000004000818048000201490083814900d3
:100c00000802be000a03be00d6ff070000fe2f0048
:100c100000000600881f780018002000881f780058
:100c20008aff07008f87e9004f0478000000060064
:100c3000801feb0085ff07008f87e900000006009a
:100c4000889fbe008a9fbe00e00f5000e08f5800d2
:100c5000e00f5900e08f59000c003d006044b800df
:100c60006055b8000000540081805c0002015d0006
:100c700083815d00180020001500070008003d007a
:100c8000180007000004eb00050037000004eb002b
:100c90000f00070002003d001200070018002000ae
:100ca000dcff0700e00f5400060032006022b800ad
:100cb0006033b8000000520081805a0002015b00de
:100cc00083815b004f05be004f04be00000006009c
:100cd000e00f5200e08f5a00e00f5b00e08f5b00f6
:100ce000000006006044b8006055b80004025400db
:100cf00085825c0006035d0087835d0000000600be
:100d0000889fbe008a9fbe008c1f7800e00f5000b5
:100d1000e08f5800e00f5900e08f59000d003d00b2
:100d20006044b8006055b8001c002000000054006a
:100d300081805c0002015d0083815d000820e1008c
:100d400009a8e1000ab0e1000bb8e1000d003d0088
:100d5000080037000006eb00e00f5200e08f5a0059
:100d6000e00f5b00e08f5b0006003d006044b800d0
:100d70006055b8000402540085825c0006035d00e3
:100d800087835d00aaff0700e00f560006003200cf
:100d90006022b8006033b8000000520081805a0021
:100da00002015b0083815b004f0678004f05be00a7
:100db0004f04be0000000600889fbe008a9fbe0050
:100dc0008c1f78000006eb00e00f5000e08f580009
:100dd000e00f5900e08f590007003d006044b80063
:100de0006055b8001c0020000000540081805c00a9
:100df00002015d0083815d00e00f5200e08f5a0028
:100e0000e00f5b00e08f5b0007003d006044b8002e
:100e10006055b8000c00a2000402540085825c00fa
:100e200006035d0087835d003b000700e00f56006e
:100e3000060032006022b8006033b80000005200a3
:100e400081805a0002015b0083815b004f067800bd
:100e50004f05be004f04be0000000600889fbe0084
:100e60008a9fbe000082700004027100048271003b
:100e7000260032000004be000200be006011b8006f
:100e80006b092000950220000182cf000a00390082
:100e90000541b1000082cf00070039000541b100d3
:100ea0000982cf00040039000541b1000882cf005b
:100eb000010039000541b100054252001200320024
:100ec0000a003b0082817100610164008100d10051
:100ed0000080d3008984d3000884d3008b05e80008
:100ee0000442e800f7ff3a00070037000804440016
:100ef00089844c0000004800818048008b05e9008f
:100f00000442e900f9ff3a0000fe07004f05be0069
:100f10004f04be0000000600889fbe008a9fbe00ee
:100f20008c9fbe000404b8000506b8008904460082
:100f300060854e000606b8000a054600e0854e00b2
:100f40000706b8008b054600040eb8008904460069
:100f50000a854e00e0854d00050eb8000a054600e2
:100f60008b854e00060eb8008b0546000416b800af
:100f70000a0546008b854e000516b8008b05460015
:100f8000041eb8008b0546000800be000a01be0022
:100f90004f06be004f05be004f04be000000060015
:020000040000fa
:100fa0000000fa00f4418000040078000080fa009c
:100fb000000006000000fa00c44180000400780030
:100fc0000080fa00000006000000fa000002eb00ba
:100fd000244188000080fa00000006000600fa00a4
:100fe000889fbe008a9fbe004000200001002000b4
:100ff000c5040700000278000402e8000500200094
:101000000401be0000482800e101200093fd070014
:101010000002be0014079800250798001e039000e8
:10102000ae039000443add00cc32de00850272004f
:101030004432dd000404be000005eb008005eb0037
:101040000802be000a03be0000402200410f20003b
:101050006011b800fafe07000203be000002be00e5
:10106000040278000402e900a41088000fe2a9003d
:101070000ee2a9000ec2a8000de2a8000f42a800cf
:101080000d42a8000002eb00040f780007003700b3
:101090001e02780084024200648220000482420022
:1010a0008002eb00050a78001e0fe8001e0278009f
:1010b000e70f5200f6ff34004f05be004f04be009c
:1010c0000080fa00000006000200fa00000f78001d
:1010d00000000000751080000420200004826200df
:1010e000e00f5200fbff3a001e02780084108800d7
:1010f0000080fa00000006000a00fa0020079800ad
:101100003107980042079800f54180002e029000b8
:10111000848242004e029000048242000482e80071
:10112000040f780050002000010020007604070022
:101130000002780004024200040078000100200050
:10114000020020000300200004402200450f200080
:101150006033b80018ff07000203be000002be00a3
:101160000400be000601be0004242400f500200097
:101170006033b800b2fe07000203be000002be00ea
:101180000402be000400be004c050700f00f200062
:10119000cdff0700f00f2000cbff07002e009000ce
:1011a000c9ff07004e0290000482e80004007800a6
:1011b000c5ff0700f441800004007800c2ff07006b
:1011c0000002eb0014079800120037001e02900086
:1011d00004024200be029000048242001402780021
:1011e00004007800b8ff07001e02900004024200cd
:1011f000be02900004824200940278001e02780031
:1012000004824200040f78001e0290000402e800ed
:10121000140798009e0290004e029000848f5200a6
:10122000eaff39009e027800f40f20001100090047
:101230008402d80001027800f50f200004825200d9
:1012400004007800a0ff07000080fa0000000600fc
:101250000000fa00250480000408200004826200d7
:10126000e00f52002a003a0013e1a9000002eb004f
:101270005408880024418000951080000403420037
:101280006482200004024300050a78003541800092
:10129000f40f2000848f5200030032000002eb00a4
:1012a000244188001a00370024418000e10f5200d9
:1012b00007003a0045418000f40f2000848f52005f
:1012c000030032000002eb002441880010003700c8
:1012d00024418000e30f520002003a006441800084
:1012e000c4418800244180000402e80024418800b1
:1012f0002441800084027800c441800063024200df
:10130000848f5200010036000300070013e1a8009b
:101310000080fa00000006000400fa000002eb0062
:101320002441880054418000b44188007441800009
:10133000d4418800c441800063024200840242001c
:10134000648220000482420014027800e441880094
:101350000002eb00040f78000002eb001407980075
:10136000140037001e029000650242008402420011
:101370006482200004824200940278001e029000e1
:10138000040342000484200004024300050a78009c
:101390001e02900084024200048420000482420065
:1013a000140278001e0f42001e0290000402e800a2
:1013b00014079800c44180008482e9001e02900056
:1013c000848f5200e7ff3e00b5418000c441800099
:1013d00084824200d4418000048242001e0f4200f9
:1013e0009e027800f40f2000110009008482d800ca
:1013f00001027800f50f2000048f5200e4418000c4
:101400009e0f520002003a004d0007001400370002
:10141000b5418000e40f2000848f5200100032009c
:101420000001200001002000b7030700000278003f
:10143000e00f52000a0032003000200019000700bf
:10144000b4418000e40247000001eb008500780011
:101450000400780028ff0700f00f200011000700ab
:101460000002eb0014079800090037001e029000ec
:101470008402420064822000048242008002eb0069
:10148000050a78001e0290000402e8001407980084
:101490001e029000e70f5200f4ff36000080fa00b1
:1014a000000006000200fa00000f78001e0278001b
:1014b000e00f520005003a00f541800004042000ce
:1014c00005027200f44188001b0037001e027800fc
:1014d000e30f520004003a00f44180000440a000f1
:1014e000f4418800140037001e027800e10f52001a
:1014f00004003a00f44180000420a000f441880078
:101500000d0037001e027800e20f520004003a007e
:10151000f44180000400a000f44188000600370078
:10152000f40f20009e027800848f520002003a00df
:101530000002eb00f44188000080fa000000060081
:101540001200fa0030002000010020006e030700a6
:1015500000027800b5418000850f5200040032007f
:10156000b5418000e40f2000848f52003a013a0018
:10157000d4418000e10f520011003a00b5418000d3
:10158000e40f2000848f52000d0032000001200083
:10159000010020005c03070000027800e00f520009
:1015a00007003200b4418000e80247000001eb0070
:1015b0008500780004007800cffe07002601370080
:1015c000d4418000e20f52003f003a00b541800054
:1015d000e40f2000848f52003b0032000001200005
:1015e000010020004803070000027800e00f5200cd
:1015f0003500320004428000f70f52000f003e0019
:1016000004428000050020000400be003e030700e5
:1016100000027800140798001e029000440798000a
:10162000b4418000e80247001200200085007800e5
:1016300004007800b0fe0700070137000442800074
:10164000f70f5200150036000542800044032000c9
:10165000848f520011003e00044280000400780094
:1016600078010700000278002407980004428000f7
:10167000540798002e02900064079800b44180003f
:10168000ea0247002200200085007800040078006c
:1016900099fe070000000000ef0037000000eb009b
:1016a00080ff0700b4418000ee0247000001eb001c
:1016b00085007800040078008ffe0700f00f2000fe
:1016c00078ff0700e4003700d4418000e30f5200a8
:1016d00039003a0004428000f70f520007003e0034
:1016e00016428000044280000500200006017800b8
:1016f0000400be00210307000f00370004428000f1
:10170000f70f52000a003600054280004403200013
:10171000848f520006003e00154280000442800083
:101720008500780004007800ee0007000200370012
:101730000000eb005bff0700b5418000e40f2000d4
:10174000848f5200120032000001200001002000ae
:10175000ed02070000027800e20f52000c003a0090
:10176000054280001442800075079800040f98001d
:10177000b4418000ee02470022002000850078007e
:10178000040078005cfe0700f00f200045ff070012
:1017900004428000e40f520001003a000ffe0700ef
:1017a0000542800034032000848f5200aa003a00d2
:1017b0008b010700a8003700d4418000e40f5200dd
:1017c00019003a00d4418000044288000002eb0076
:1017d000040f78000b0037001e02780084024200dc
:1017e0000484200004824200940278001e027800e3
:1017f000040342002484200004024300050a780008
:101800001e0fe8009e027800c44180000482e900b7
:10181000848f5200f0ff390011002000c002200028
:10182000b00007008c003700d4418000e50f520063
:1018300037003a00c00220000201070000027800d1
:10184000e10f52001d003a008000eb00c0022000b2
:10185000a400070004428000f70f520007003e007a
:101860002642800014428000050020000601780016
:101870000400be00c10207001200370004428000cd
:10188000f70f52000a003600054280004403200092
:10189000848f520006003e002542800014428000e2
:1018a00085007800040078008e00070005003700ee
:1018b0000000eb00fbfe0700020037000000eb0019
:1018c000f8fe0700b5418000e40f2000848f52002d
:1018d0000c00320000012000010020008a020700f5
:1018e00000027800e20f520006003a00b441800086
:1018f000f20247000001eb00850078000400780048
:10190000fdfd0700f00f2000e6fe07005200370043
:10191000d4418000e60f520019003a00bf020700d0
:101920004f000700b5418000e40f2000848f520073
:1019300010003200000120000100200072020700a8
:1019400000027800e20f52000a003a003000200046
:10195000010020006c0207000002780034079800a4
:10196000720247000001eb00840078003e00900006
:10197000e1fd0700f00f2000cafe07003600370027
:10198000d541800034082000848f52001e003a00a8
:10199000c0022000ab00070000027800e00f5200f8
:1019a000040032008000eb00c00220004d00070060
:1019b000020037000000eb00bafe0700b5418000ce
:1019c000e40f2000848f52000c0032000001200040
:1019d000010020004c02070000027800e20f5200d4
:1019e00006003a00b4418000f20247000001eb001b
:1019f0008500780004007800bffd0700f00f20008c
:101a0000a8fe07001400370000012000010020009c
:101a10003d02070000027800e20f52000c003a007d
:101a2000b5418000e40f2000848f5200080032008e
:101a30000000eb009bfe0700b4418000f20247006b
:101a40000001eb008500780004007800aafd070083
:101a5000f00f200093fe07000080fa00000006004f
:101a60000000fa000002eb00144088000002eb00c6
:101a7000244088000002eb00344088000002eb00a4
:101a8000444088000002eb00744088000002eb0034
:101a9000844088000002eb00b44088000002eb00a4
:101aa000c440880004022000d44088000002eb00fb
:101ab000e440880034408000544088004440800066
:101ac0006440880004012000f440880044012000a4
:101ad0000441880094012000144188000080fa002d
:101ae000000006000400fa00000f780011079800bb
:101af0001e0278006123b80084fe2f00f5ff2f003e
:101b00000602420087824a00c6012000070020002a
:101b1000860f5200878f5a0045003e000460010086
:101b20002500370027003700430037004200370008
:101b300041003700400037002500370027003700fc
:101b4000290037002b0037003b0037003a003700f0
:101b500039003700380037003700370036003700cb
:101b600035003700340037003300370032003700cb
:101b700023003700300037002f00370023003700e4
:101b80002500370027003700020037000400370027
:101b9000060037001e029000f4408800270037003e
:101ba0001e02900004418800240037001e029000ad
:101bb00014418800210037001e0290001440880064
:101bc0001e0037001e029000244088001b003700d2
:101bd0001e02900054408800180037001e0290003a
:101be00064408800150037001e0290007440880091
:101bf000120037001e029000844088000f0037005a
:101c00001e029000b44088000c0037001e029000b5
:101c1000c4408800090037001e029000d4408800ac
:101c2000060037001e029000e440880003003700e1
:101c30000000000001003700000000000080fa00f2
:101c4000000006000200fa00000f78001e02780073
:101c50006123b80084fe2f00f5ff2f00060242002a
:101c600087824a00c601200007002000860f52002c
:101c7000878f5a0040003e000460010022003700b8
:101c8000230037003c0037003b0037003a003700a4
:101c900039003700200037002100370022003700cc
:101ca00023003700340037003300370022003700ac
:101cb00023003700300037002f0037002e00370098
:101cc0002d003700200037002100370022003700a8
:101cd0002900370028003700210037002200370094
:101ce00023003700020037000300370004003700ec
:101cf000f440800021003700044180001f003700bd
:101d0000144180001d003700144080001b00370084
:101d1000244080001900370054408000170037002d
:101d200064408000150037007440800013003700c5
:101d30008440800011003700344080000f003700dd
:101d4000444080000d003700944080000b003700b5
:101d5000a440800009003700b4408000070037002d
:101d6000c440800005003700d440800003003700e5
:101d7000e4408000010037000002eb00040078001e
:101d80000080fa00000006000200fa00000f780050
:101d9000040420009e027800848f520002003a0062
:101da000340020000b0037001e027800f00f5200b4
:101db00002003a0024002000060037001e027800ce
:101dc000e40f520002003a00140020000100370026
:101dd0000002eb00040078000080fa00000006001a
:101de0000600fa00889fbe00c1e1a9003003200070
:101df00094ff070000027800050020000400be00e8
:101e000040fa07000002be00048fbe00020020005e
:101e1000a34724001e00be00cef907000002be004a
:101e2000048fbe002003200086ff07000002780018
:101e3000240798000240220043b724001e00be0081
:101e400085fa07000002be000404be002e029000c6
:101e5000050020000400be002afa07000002be00b0
:101e60000401be000800be00baf907000002be006f
:101e70000200200003f823000400be0057f9070009
:101e80000002be000400be0003fa07000002be000c
:101e900004027800240e88000002eb00140e880073
:101ea0000002eb00b40e8800c1a1a900040e80005e
:101eb0000400a1000410a100040e8800040e80009c
:101ec0000440a1000450a1000460a1000470a1001e
:101ed000040e88002e009000abff0700000278007f
:101ee00004427800634262000482fb0063026200e5
:101ef0004222dd00060e800035ff2f0085026300c0
:101f000005027200040e8800c901a800c921a800ba
:101f1000c941a800c881a800c801a800c8a1a9009b
:101f2000c821a900c8c1a900c841a900ca41a90087
:101f3000ca21a800ca01a900d521a800d501a8007e
:101f4000d561a800d541a800d5a1a800d581a800d9
:101f50004f04be000080fa00000006000c00fa00ea
:101f6000889fbe00500798003003200035ff07000f
:101f700000027800050020000400be00e1f907001f
:101f80000002be00048fbe0002002000a347240010
:101f90001e00be006ff907000002be00048fbe00e5
:101fa0002003200027ff0700000278002407980084
:101fb0000240220043b724001e00be0026fa07009c
:101fc0000002be000404be002e02900005002000a6
:101fd0000400be00cbf907000002be000401be00f1
:101fe0000800be005bf907000002be000401be004d
:101ff0000400be00faf807000002be000400be00a4
:10200000a5f907000002be003407980045079800b4
:102010005e029000050020004e03900004b3b9005a
:1020200006037800be03900005b8b900800378006d
:1020300007034300be039000040278000722b800a3
:10204000050343008602780034079800450798008e
:1020500034079800450798003e029000ce02900099
:1020600042062000030020000400be002efa0700f4
:102070000002be0034079800450798003e02900019
:10208000b40e88004f04be000080fa000000060075
:102090000000fa00f00f200002fd07000080fa00a7
:1020a000000006000400fa001001200001002000da
:1020b0009500070000027800040f7800b8fb0700c5
:1020c000000278001407980090012000ddfe070050
:1020d00000027800e10f520007003a0085088000f6
:1020e0000400280004826200e00f520002003a005f
:1020f000c802a8000b00370090012000d1fe0700a5
:1021000000027800e00f520006003a0085088000c7
:102110000400280004826200e00f520001003a002f
:10212000c802a9001e027800610262000442780021
:10213000e04f5200060032001e0290006102620071
:1021400004427800e04f52000100320011e1a80083
:102150009e02780064826200e00f520005003200a7
:102160001e02900062026200e00f52000100320085
:1021700011e1a8009e02780070826200e00f520018
:10218000050032001e02900070026200e00f520053
:102190000100320011e1a800040420001e026200c8
:1021a000e00f5200060032009e029000040420005e
:1021b00004826200e00f52000100320011e1a80029
:1021c0000080fa00000006000000fa0080012000f4
:1021d0009cfe070000027800e10f52000d003a005b
:1021e0004003200097fe07000002780004007800fa
:1021f0005aff0700c1e1a80000000000050e8000a2
:102200000400280004826200e00f5200fbff32004d
:1022100001003700c1e1a9000080fa0000000600bb
:102220000400fa0020012000010020003600070011
:1022300000027800040f780059fb070000027800c4
:10224000140798001e0278006102620004427800c0
:10225000e04f5200080032001e029000610262004e
:1022600004427800e04f5200030032008000eb008f
:10227000800120001bfe07009e027800648262003d
:10228000e00f5200070032001e029000620262005e
:10229000e00f5200030032008000eb0080012000bc
:1022a00010fe07009e02780070826200e00f52006c
:1022b000070032001e02900070026200e00f520020
:1022c000030032008000eb008001200005fe0700c3
:1022d000040420001e026200e00f520008003200d9
:1022e0009e0290000404200004826200e00f52006d
:1022f000030032008000eb0080012000f9fd0700a0
:102300000080fa00000006000e00fa00881f780026
:10231000500798006107980004c02f00f5072000bf
:10232000048fbe005e029000ee02900004024200a4
:1023300085824a003e034200ae834a000602be0088
:102340002407980035079800f4c7b300844278004a
:1023500027032000854b78002e029000be029000db
:102360001404ba00480798004e0290000400780058
:102370004f0478000080fa00000006000a00fa000e
:1023800020079800310798004207980004c02f00ea
:10239000f5072000048fbe002e029000be029000c0
:1023a0000402420085824a003e014200ae814a009a
:1023b0000202be00220020000400be00dff707007a
:1023c000053b80000400280004826200e00f5200f8
:1023d000fbff3a004e0390002e029000be029000d8
:1023e0000402420085824a003e014200ae814a005a
:1023f0000202be00060178000400be00e8f70700f4
:10240000053b80000400280004826200e00f5200b7
:10241000fbff3a000080fa00000006000000fa000e
:10242000c20020003000200001002000d3ff070080
:10243000f20c20004000200001002000cfff070028
:10244000a20f20005000200001002000cbff070059
:10245000f20f2000e000200001002000c7ff07006d
:1024600032002000f000200001002000c3ff070020
:10247000220020000001200001002000bfff070013
:10248000420020001001200001002000bbff0700d7
:10249000420020002001200001002000b7ff0700bb
:1024a0000080fa00000006000000fa0081e0a900a8
:1024b0008d40a9008d20a80024a127006408880071
:1024c000840880000440a0000450a0008408880014
:1024d0001021a9001061a90010c1a90011a1a90033
:1024e00011e1a9008cc0a800a4862100740888000e
:1024f000940880000440a0000450a00094088800c4
:102500001221a90012c1a90013a1a90013e1a90079
:102510008ce0a8008540a9008520a90084c0a900fe
:1025200084e0a9000080fa0000000600849fbe003d
:10253000861f78000000fa0084c0a90024842000cf
:10254000144278000482fb0061026200461680009b
:10255000e5ff2f0085026300050272004416880023
:1025600024842000144278000404a2000482fb00aa
:10257000044278000443780025842000864a7800cd
:10258000244280000402e8002442880024428000a3
:10259000e30f5200030036000002eb0024428800e3
:1025a00011e1a9000080fa004f0378004f02be003d
:1025b000004006003600f800809fbe00829fbe00eb
:1025c000849fbe00869fbe000000fa0084e0a90040
:1025d00013e1a9000002eb00540888007afa070012
:1025e0000080fa004f03be004f02be004f01be0044
:1025f0004f00be003600f900004006000000fa005f
:102600008540a9000080fa00004006003600f8006e
:10261000809fbe00829fbe00849fbe00869fbe003a
:102620000000fa008520a90009fb07000080fa00dd
:102630004f03be004f02be004f01be004f00be0060
:102640003600f900004006000400fa00000f780090
:1026500011079800f20c200040002000010020002b
:1026600046ff07005dfa07008fff0700fcfc07002c
:10267000dbfd07000002eb003416880011e1a80022
:102680000400370082fe070086fe0700e4fe070014
:10269000cdfe0700f00220006afd0700000278006e
:1026a000e00f5200f7ff3200edfc07000002eb00e4
:0c26b000040078000080fa000000060022
:020000040000fa
:1026bc00f03fb1000180b10006003500ee030900c7
:1026cc0000000000403fb1000180b100fbff3d0065
:1026dc001000b000203fb00002003500008009005f
:0826ec000000000000000600e0
:020000040000fa
:1026f400240800001e000000000000000008000084
:102704002400000000000000420800000200000055
:102714000200000001000000440800000200000064
:082724000000000000000000ad
:020000040000fa
:0200000400fffb
:04f800000000000004
:020000040000fa
:0200000401f009
:04000000f7bf000046
:020000040000fa
:0200000401f009
:04000400ff7f00007a
:020000040000fa
:0200000401f009
:040008007c7f0000f9
:020000040000fa
:0200000401f009
:04001400ffff0000ea
:020000040000fa
:0200000401f009
:04001800ffff0000e6
:00000001FF
