:020000040000fa
:080000000001040000000000f3
:020000040000fa
:100008009a0100009a0100009a0100009a0100007c
:100018009a0100009a0100009a0100009a0100006c
:100028009a0100009a0100009a0100009a0100005c
:100038009a0100009a010000de1100001812000069
:100048009a010000421200003a1200009a010000d2
:100058009a0100009a0100009a0100009a0100002c
:100068009a0100009a0100009a0100009a0100001c
:100078009a0100009a0100009a0100009a0100000c
:100088009a0100009a0100009a0100009a010000fc
:100098009a0100009a0100009a0100009a010000ec
:1000a8009a0100009a0100009a0100009a010000dc
:1000b8009a0100009a0100009a0100009a010000cc
:1000c8009a0100009a0100009a0100009a010000bc
:1000d8009a0100009a0100009a0100009a010000ac
:1000e8009a0100009a0100009a0100009a0100009c
:0800f8009a0100009a010000ca
:020000040000fa
:100108009a0100009a0100009a0100009a0100007b
:100118009a0100009a0100009a0100009a0100006b
:100128009a0100009a0100009a0100009a0100005b
:100138009a0100009a010000de1100001812000068
:100148009a010000421200003a1200009a010000d1
:100158009a0100009a0100009a0100009a0100002b
:100168009a0100009a0100009a0100009a0100001b
:100178009a0100009a0100009a0100009a0100000b
:100188009a0100009a0100009a0100009a010000fb
:100198009a0100009a0100009a0100009a010000eb
:1001a8009a0100009a0100009a0100009a010000db
:1001b8009a0100009a0100009a0100009a010000cb
:1001c8009a0100009a0100009a0100009a010000bb
:1001d8009a0100009a0100009a0100009a010000ab
:1001e8009a0100009a0100009a0100009a0100009b
:0801f8009a0100009a010000c9
:020000040000fa
:100200000f8520000e9f20000e01880000000000d6
:10021000000020000000e000020032000001200089
:10022000200288000c000700a031210001002000fe
:1002300011000700000020000000e0000200320072
:100240000000020000000000de12020000000000ba
:100250000040da000000fe004440a9000000200039
:100260000000e0000300320000002000a001880030
:100270004440a8000000060091018800800078003a
:100280000000eb0015003700e280400032a0b4000f
:100290009101ba00e280400032a0b4009102ba009d
:1002a000e280400032a0b4000002eb00472bde00e9
:1002b000f507b200602ce10004003a000059eb00a1
:1002c0008301e900fdff3e00040037006128e100e2
:1002d000010032000082eb00040007001101ba00a7
:1002e0000200e000e8ff3a00000006003159ba00c1
:1002f0008301e9000c0032002159ba008301e900b2
:10030000080032000400e00003003a00e2804000f0
:1003100032a0b400f5ff370011d9ba008301e9001b
:10032000faff3a008100e800e180400032a0b4000a
:10033000000006000040da000000fe003200f80075
:10034000910188000008bb00410424006210e10014
:1003500004003200000220000010e1000a003a0010
:1003600051042400013b88000500fc0051052000d9
:10037000313b8800a10a2000313b880061e7a800da
:1003800000000000000000003200f900000006003c
:100390003200f80060042400003b8800f2ff3700c0
:1003a0003200f8009101880041002400013b8800e0
:1003b0000208bb00ecff37003200f8009101880012
:1003c00051002400013b8800030120003218bb00cb
:1003d0008301e900fdff3a00e3ff370003f0a200cc
:1003e000889fbe008a9fbe008c1f78000201070014
:1003f000090133006450e1004f0032006420e10045
:100400005200320003826c0007003b000905d00057
:100410000306d000820f54000c065d000200390074
:1004200002003200890178000306780085825500b9
:1004300004003d000003fd008103fd008502ea0089
:100440008b854200840f720002003b0060001000a8
:10045000e08018006011b8000005eb007a28e10088
:100460000a00390006007800c75ddd00f707b2001a
:10047000878075002d003700828171000a017800a5
:10048000610560008180d1000080d3008502e90011
:10049000f9ff3b00060440008784480002003b004f
:1004a00060041400e0841c000988a30007003200e7
:1004b0008a81710082817100610164008904d10028
:1004c0000884d3008b05e800170037000978a300e3
:1004d00013003a000b00e000130034008b05e90024
:1004e0000804440089844c000a4474000978a3007d
:1004f0000d003a000b00e000070034008b05e90016
:100500000804440089844c0001003a000b002000dc
:100510000978a300f7ff32000001eb00020037006a
:10052000828171000a017800780007000cf0a700b2
:1005300001f0a000c10037006420e10002003a0091
:10054000838f6c00c10033000801be000200be00b2
:10055000ba003700889fbe008a9fbe008c1f7800bb
:10056000a5000700ac00330003866c006450e10076
:100570002e0032006420e100330032006150e100bf
:100580002f0032006120e1003100320085855500e6
:10059000eb07b00009002000080420000500370028
:1005a0000804440089844c000a003100060343001b
:1005b00087834b000001530081815b00f8ff33000b
:1005c0000203be000800a0000804440089844c0017
:1005d000f6ff3900c639dd008301730001003200e7
:1005e000130020008904d1000884d3000998a300d7
:1005f000050032000800a7000300a0008904d10014
:100600000884d3008b05e8008904d1000884d30056
:100610000001eb000281d2003c00070001f0a100c4
:100620000cf0a70001f0a000840037006420e10076
:10063000860032000801be000200be00f7ff37004e
:100640006120e100810032006000b800f3ff370054
:100650000000200001f82700f0ff3700839f6800aa
:100660000100e00002003d0060001000e080180082
:100670000300e00002003d0060011100e08119006c
:10068000a90007004f00e00002003b0060001000de
:10069000e0801800000006000001be0041000700d5
:1006a0000470a70003f0a10003f8a30013003a00b0
:1006b0006509b10010003200090035006928e10029
:1006c0000200350001002800000005000000400085
:1006d000818048008502e900fcff3a000000060026
:1006e000f88f4200050035008100d1000080d30062
:1006f0008502e800fcff3a00000006008000eb00e5
:10070000000005006011b800c20137008100200020
:10071000618055000b003d000b00200061fe2f00a2
:100720000100e1001d00340082817100610164005c
:100730008904d1000884d3000000e800faff3a00e1
:10074000710020006100640003007000020060007e
:100750000900320061044400e0844c000988a500cf
:10076000050032008b05e8006808e10002003a004d
:100770008904d1000884d300f20f20000258e10060
:1007800005003d00c75ddd00f907b20089807500f6
:1007900008007800000006000bf827008b007800a6
:1007a00000000500c70ade00f107b200f50fb20035
:1007b00008003200e1cf4200020032000170a000c8
:1007c00024000500810f70000100320004080500bc
:1007d00044000500810f700002003a00140005007b
:1007e0008502e9000000400081c04800fcff3b009a
:1007f0000170a000240005000004be00e9ff07000e
:100800000003be000405be000200be00e5ff0700b5
:10081000844f7500000006000200be006450e10035
:10082000050036006420e100020036000968a300dc
:1008300001003a000800be000160a0004f067800e9
:100840004f05be004f04be0000000600f0ff2f0061
:10085000f1ff2700f9ff3700889fbe008a9fbe0086
:100860008c1f7800e4ff0700ebff330003866c0069
:100870006450e100240032006420e10027003200cf
:100880006150e100220032006120e10021003200cd
:100890008b854200eb07b1000134b800003ab80084
:1008a0000804420089844a00013ab8000030b800c8
:1008b0008880400009014a00040033000000400025
:1008c00081804800020149008b05e900c909dd006b
:1008d000830170000100320013002000c814de0004
:1008e0004814dd004709de001200b200c808de002f
:1008f0000884700085ff070001f0a1000cf0a7003c
:1009000001f0a000cdff37006120e100cfff3200f1
:100910000801be000200be00f7ff37006150e10091
:10092000fcff3a00c9ff37006022b8000602200031
:100930000000d0008180d2000482d2008582d200e3
:100940000000a0000202520083825a00030031001e
:100950000202420083824a000000a1000603e9006f
:10096000f3ff3a0000000600889fbe008a9fbe0089
:1009700030044200b0844a0030054b0090854b00a3
:100980006000b1000898be000a90be000440e1007b
:1009900005c8e10006d0e10007d8e10002003100ff
:1009a000680040001008e8004f05be004f04be007c
:1009b00000000600889fbe008a9fbe003004be0073
:1009c0002005be000418540005985c0006185d0060
:1009d00007985d00110020000440e10005c8e10017
:1009e00006d0e10007d8e100010039008000eb00eb
:1009f000108810004f05be004f04be000000060026
:100a00001200fa00889fbe008a9fbe008c9fbe0025
:100a1000e0b79f00f1b79f0082bf9f0093bf9f0088
:100a20000605be000404be000000eb00d0b79f0026
:100a3000c0b79f00b0b79f00a0b79f0090b79f00be
:100a40000006eb005fb19700cfb097008201410034
:100a50003fb097000200e00004003d0037000700af
:100a60007e805700c0ff07000300370033000700f7
:100a70007e805700cfff0700dfb697000d00e00033
:100a80000c0035006fb29700ffb297000fbb9700c4
:100a90009fbb970010002000010020006011b800eb
:100aa000000272008182720002037300838373006c
:100ab0001b0007000c06e80001042000810f56000f
:100ac000e0ff3a000d00e00004003d000802be0017
:100ad0000a03be007e805700a3ff07005fa89700af
:100ae0000000e00005003a001fb29700afb2970087
:100af0003fb39700cfb39700090007006fb097008e
:100b0000ffb097000fb997009fb997004f06be003e
:100b10004f05be004f04be000080fa000000060032
:100b20000100070000000600a4b79f00b5b79f00b2
:100b3000c6b79f00d7b79f00000006004f09de0030
:100b400082817100b3b79f004f01de0081804000b9
:100b500082807000a1b79f008fb097004f09de0020
:100b6000000040000200700090b79f007fa897002f
:100b70004f01de00818040008280700081b79f00bd
:100b80000d0007004f3ade00000040000400700036
:100b9000f0af9f00080007000402420085824a006f
:100ba00006034b0087834b00dfff07000802be00ef
:100bb0000a03be00000006002fb29700bfb29700e4
:100bc0004fb39700dfb3970000000600881f78003e
:100bd00018002000881f780089ff07008f87e90030
:100be0004f04780000000600801feb0084ff070020
:100bf0008f87e90000000600889fbe008a9fbe0024
:100c0000e00f5000e08f5800e00f5900e08f5900ce
:100c10000c003d006044b8006055b800000054006e
:100c200081805c0002015d0083815d00180020006e
:100c30001500070008003d00180007000004eb0045
:100c4000050037000004eb000f00070002003d0024
:100c50001200070018002000dcff07000800e00079
:100c6000060032006022b8006033b8000000520075
:100c700081805a0002015b0083815b004f05be004a
:100c80004f04be0000000600e00f5200e08f5a0043
:100c9000e00f5b00e08f5b00000006006044b800de
:100ca0006055b8000402540085825c0006035d00b4
:100cb00087835d0000000600889fbe008a9fbe00fb
:100cc0008c1f7800e00f5000e08f5800e00f5900b3
:100cd000e08f59000d003d006044b8006055b80039
:100ce0000000540081805c0002015d0083815d0092
:100cf0001c0020000820e10009a8e1000ab0e10082
:100d00000bb8e1000d003d00080037000006eb00c5
:100d1000e00f5200e08f5a00e00f5b00e08f5b00b5
:100d200006003d006044b8006055b800040254005d
:100d300085825c0006035d0087835d00aaff0700d3
:100d40000c00e000060032006022b8006033b800fa
:100d50000000520081805a0002015b0083815b0029
:100d60004f0678004f05be004f04be00000006008d
:100d7000889fbe008a9fbe008c1f78000006eb0093
:100d8000e00f5000e08f5800e00f5900e08f59004d
:100d900007003d006044b8006055b80000005400f2
:100da00081805c0002015d0083815d001c002000e9
:100db000e00f5200e08f5a00e00f5b00e08f5b0015
:100dc00007003d006044b8006055b80004025400bc
:100dd00085825c0006035d0087835d000c00a20035
:100de0003b0007000c00e000060032006022b80063
:100df0006033b8000000520081805a0002015b009d
:100e000083815b004f0678004f05be004f04be0093
:100e100000000600889fbe008a9fbe00008270000e
:100e20000402710004827100260032000004be003a
:100e30000200be006011b8006b092000950220007e
:100e40000182cf000a0039000541b1000082cf00c5
:100e5000070039000541b1000982cf0004003900c4
:100e60000541b1000882cf00010039000541b10001
:100e700005425200120032000a003b0082817100dc
:100e8000610164008100d1000080d3008984d30017
:100e90000884d3008b05e8000442e800f7ff3a001d
:100ea000070037000804440089844c000000480013
:100eb000818048008b05e9000442e900f9ff3a000f
:100ec00012fe07004f05be004f04be0000000600e2
:100ed000889fbe008a9fbe008c9fbe000404b8009d
:100ee0000506b8008904460060854e000606b80075
:100ef0000a054600e0854e000706b8008b0546004f
:100f0000040eb800890446000a854e00e0854d00b5
:100f1000050eb8000a0546008b854e00060eb80087
:100f20008b0546000416b8000a0546008b854e0066
:100f30000516b8008b054600041eb8008b05460058
:100f40000800be000a01be004f06be004f05be00ed
:080f50004f04be000000060082
:020000040000fa
:100f58000000fa00304280000080fa00000006001d
:100f68000000fa00004280000080fa00000006003d
:100f78000000fa002c28ef000080fa0000000600ac
:100f88000600fa0040002000010020008604070047
:100f98000000e8008000eb000001be0000482800c7
:100fa800e1012000abfd0700100798002107980019
:100fb8001e019000ae0190004418dd00cc10de0048
:100fc800810070004410dd006011b8000203be000b
:100fd8000002be0000402200410f20006011b8004e
:100fe80003ff0700000078000000e900a010880057
:100ff8000fe2a9000ee2a9000ec2a8000de2a800a7
:101008000f42a8000d42a8000000eb00000f780076
:10101800070037001e00780080004000e0822000b2
:10102800008040008000eb00010878001e0fe800f7
:101038001e007800e70f5000f6ff34000080fa0029
:10104800000006000200fa00000f7800000000000f
:101058007110800000202000008060000000e00087
:10106800fbff3a009e007800811088000080fa009b
:10107800000006000a00fa002007980031079800cf
:1010880042079800314280002e0090008080400086
:101098004e009000008040000080e800000f7800bb
:1010a80020002000a0168800500020000100200029
:1010b8003d040700000040008000eb006011b8000c
:1010c80004402200450f20006033b80026ff0700c7
:1010d80004242400f50020006033b800c4fe070093
:1010e8000000be0063050700f00f2000d5ff0700d1
:1010f800f00f2000d3ff07002e009000d1ff07005b
:101108004e0090000080e800ceff070030428000cb
:10111800ccff07000000eb00100798001100370013
:101128001e00900000004000be00900000804000bb
:1011380010007800c3ff07001e0090000000400068
:10114800be00900000804000900078001e007800eb
:1011580000804000000f78001e0090000000e800aa
:10116800100798009e0090004e009000808f50005d
:10117800ebff39009e007800001020000001780085
:10118800110009008200d8008000fd00f10f200046
:1011980000805000abff070010002000a016880058
:1011a8000080fa00000006000000fa002104800018
:1011b80000082000008060000000e00027003a00de
:1011c80013e1a9000a21ef0060418000911080001e
:1011d80000014000e0822000000041000108780082
:1011e80071418000f00f2000808f50000200320013
:1011f8002c28ef001900370060418000e10f5000f3
:1012080006003a0081418000f00f2000808f5000d6
:10121800020032002c28ef001000370060418000e7
:10122800e30f500002003a00a0418000004288000d
:10123800604180000000e800604188006041800053
:10124800800078000042800063004000808f5000da
:10125800010036000300070013e1a8000080fa002f
:10126800000006000400fa002c28ef0090418000de
:10127800f0418800b04180001042880000428000a0
:101288006300400080004000e082200000804000b1
:1012980010007800204288000000eb00000f780062
:1012a8000000eb0010079800140037001e009000a3
:1012b8006500400080004000e0822000008040007f
:1012c800900078001e0090000001400080842000fb
:1012d80000004100010878001e00900080004000d6
:1012e8008084200000804000100078001e0f40001d
:1012f8001e0090000000e8001007980000428000df
:101308008080e9001e009000808f5000e7ff3e00bb
:10131800f14180000042800080804000104280003f
:10132800008040001e0f40009e007800f00f200053
:1013380000017800110009008280d8008000fd00bb
:10134800f10f2000008f5000204280009e0f5000b7
:1013580002003a004500070011003700f141800003
:10136800e00f2000808f50000d00320000012000a7
:10137800010020008c0307000000e0000800320094
:101388003000200017000700f0418000e40047000b
:101398000001eb0037ff0700f00f200011000700e5
:1013a8000000eb0010079800090037001e009000ad
:1013b80080004000e0822000008040008000eb00b8
:1013c800010878001e0090000000e800100798004f
:1013d8001e009000e70f5000f4ff36000080fa006e
:1013e800000006000200fa00000f78001e007800d6
:1013f8000000e00004003a003142800000042000b0
:1014080001007000304288001e007800e30f500091
:1014180003003a00304280000040a00030428800bb
:101428001e007800e10f500003003a0030428000af
:101438000020a000304288001e007800e20f500013
:1014480003003a00304280000000a00030428800cb
:10145800f00f20009e007800808f500001003a00b5
:101468004628ef000080fa00000006001200fa008b
:1014780030002000010020004b030700f1418000ec
:10148800810f500004003200f1418000e00f20007d
:10149800808f500014013a0010428000e10f500084
:1014a8000e003a00f1418000e00f2000808f5000cc
:1014b8000a00320000012000010020003a03070062
:1014c8000000e00005003200f0418000e80047001d
:1014d8000001eb00e7fe070003013700104280001f
:1014e800e20f500034003a00f1418000e00f200084
:1014f800808f5000300032000001200001002000e1
:10150800290307000000e0002b0032004042800061
:10151800f70f50000b003e00404280008000eb00b7
:1015280021030700100798009e00900041079800cb
:10153800f0418000e800470012002000cdfe0700bf
:10154800e900370040428000f70f500011003600d4
:101558004142800040032000808f50000d003e0073
:10156800404280007d01070020079800404280002b
:1015780050079800ae00900061079800f041800085
:10158800ea00470022002000bafe07000000000021
:10159800d50037000000eb0092ff0700f041800003
:1015a800ee0047000001eb00b2fe0700f00f20003c
:1015b8008cff0700cc00370010428000e30f50007a
:1015c80032003a0040428000f70f500005003e000c
:1015d80052428000404280008000eb000c0307006c
:1015e8000d00370040428000f70f50000800360019
:1015f8004142800040032000808f500004003e00dc
:101608005142800040428000ee000700020037008f
:101618000000eb0073ff0700f1418000e00f20009d
:10162800808f50000f0032000001200001002000d0
:10163800dd020700e20f50000a003a004142800034
:101648005042800071079800000f9800f041800018
:10165800ee0047002200200086fe0700f00f200061
:1016680060ff070040428000e40f500001003a008c
:1016780043fe07004142800030032000808f500065
:1016880099003a00a6010700970037001042800031
:10169800e40f500019003a001042800040428800d0
:1016a8000000eb00000f78000b0037001e007800e8
:1016b8008000400080842000008040009000780076
:1016c8001e00780000014000a084200000004100b6
:1016d800010878001e0fe8009e0078000042800094
:1016e8000080e900808f5000f0ff390011002000d1
:1016f800c0022000b30007007b00370010428000c2
:10170800e50f50002f003a00c00220001301070027
:10171800e10f500019003a008000eb00c0022000e1
:10172800a800070040428000f70f500005003e0067
:1017380062428000504280008000eb00b402070043
:101748001000370040428000f70f500008003600b4
:101758004142800040032000808f500004003e007a
:101768006142800050428000960007000500370063
:101778000000eb001bff0700020037000000eb0031
:1017880018ff0700f1418000e00f2000808f500013
:101798000900320000012000010020008202070039
:1017a800e20f500004003a00f0418000f2004700c8
:1017b8000001eb002ffe0700f00f200009ff0700d3
:1017c8004900370010428000e60f500017003a0029
:1017d800b40207005b000700f1418000e00f200021
:1017e800808f50000e003200000120000100200010
:1017f8006d020700e20f500009003a003000200097
:1018080001002000680207003007980072004700b6
:101818000001eb00800078003e00900015fe0700f4
:10182800f00f2000effe07002f0037001142800064
:1018380030082000808f50001a003a00c0022000b3
:10184800c60007000000e000040032008000eb0042
:10185800c00220005b000700020037000000eb0018
:10186800e0fe0700f1418000e00f2000808f50006b
:101878000900320000012000010020004a02070090
:10188800e20f500004003a00f0418000f2004700e7
:101898000001eb00f7fd0700f00f2000d1fe070064
:1018a80011003700f1418000e00f2000808f5000c8
:1018b8000b00320000012000010020003a0207005e
:1018c800e20f500006003a000000eb00c5fe0700da
:1018d800f0418000f20047000001eb00e5fd070041
:1018e800f00f2000bffe07000080fa00000006008d
:1018f8000200fa0014030700000f78009e00780029
:10190800a00220002f0007005003200093000700ca
:101918009e0f50000300310020002000b1fe070098
:1019280006003700600320008c0007009e0f50005f
:101938000200360020002000aafe07000080fa00fe
:10194800000006000000fa000228ef000428ef005b
:101958000628ef000828ef000e28ef001028ef00f7
:101968001628ef001828ef0000022000d040880059
:101978001c28ef0030408000504088004040800024
:101988006040880000012000f0408800200020000e
:10199800004188009001200010418800a09929008a
:1019a800911124002041880031418800a099290024
:1019b8009111240040418800514188000080fa00bc
:1019c800000006000400fa00000f780011079800d4
:1019d8001e0078006101b80080fe2f00f1ff2f0083
:1019e8000200400083804800e2012000030020003c
:1019f800820f5000838f580053003e0000600100a2
:101a08001e00370020003700510037005000370013
:101a18004f0037004e0037001e0037002000370007
:101a280022003700240037004900370048003700fb
:101a380047003700460037004500370044003700ac
:101a480043003700420037004100370040003700ac
:101a58001c0037003e0037003d0037001c003700ef
:101a68001e0037002000370022003700240037000e
:101a780026003700280037002d0037001e00900090
:101a880010408800330037001e0090002040880076
:101a9800300037001e009000504088002d003700ad
:101aa8001e009000604088002a0037001e00900049
:101ab80070408800270037001e0090008040880092
:101ac800240037001e009000b04088002100370035
:101ad8001e009000c04088001e0037001e009000c5
:101ae800d04088001b0037001e009000e0408800ae
:101af800180037009e009000f1408800150037005c
:101b08009e00900001418800120037009e0090005e
:101b1800114188000f0037001e0090008000eb0084
:101b2800f6fa070020418800314188000900370093
:101b38001e0090008000eb00f0fa0700404188008a
:101b48005141880003003700000000000100370001
:101b5800000000000080fa00000006000200fa0001
:101b6800000f78001e0078006101b80080fe2f0089
:101b7800f1ff2f000200400083804800e2012000ae
:101b880003002000820f5000838f58004c003e0055
:101b9800006001001e0037001f00370048003700b2
:101ba8004700370046003700450037001c00370063
:101bb8001d0037001e0037001f00370040003700a7
:101bc8003f0037001e0037001f0037003c00370079
:101bd8003b0037003a003700390037001c00370057
:101be8001d0037001e00370035003700340037006d
:101bf8001d0037001e0037001f0037002000370087
:101c08002100370022003700230037002700370063
:101c1800104080002b00370020408000290037004a
:101c280050408000270037006040800025003700c2
:101c3800704080002300370080408000210037007a
:101c4800304080001f003700404080001d003700f2
:101c5800904080001b003700a0408000190037002a
:101c6800b040800017003700c040800015003700e2
:101c7800d040800013003700e0408000110037009a
:101c8800f04080000f003700004180000d00370051
:101c9800104180000b003700204180003141800056
:101ca8007bfa0700000078000600370040418000fa
:101cb8005141800076fa07000000780001003700e3
:101cc8000000eb000080fa00000006000200fa00a5
:101cd800000f7800000420009e007800808f5000dc
:101ce80002003a00300020000b0037001e00780088
:101cf800f00f500002003a002000200006003700d4
:101d08001e007800e40f500002003a001000200086
:101d1800010037000000eb000080fa000000060018
:101d28000600fa00889fbe00c1e1a9003003200028
:101d38008aff07008000eb0070fa0700008fbe00e2
:101d480002002000a34724001e00be00fff9070080
:101d5800008fbe002003200080ff070020079800a6
:101d68000240220043b724001e00be00b8fa070054
:101d78000004be002e0090008000eb005ffa070010
:101d88000001be000800be00f0f9070002002000b4
:101d980003f823008ff907003dfa070000007800d8
:101da800200e8800c221ef00d621ef00c1a1a900b2
:101db800000e80000000a1000010a100000e8800a5
:101dc800000e80000040a1000050a1000060a100aa
:101dd8000070a100000e88002e009000bbff0700d5
:101de80000407800634060000080fb0063006000f2
:101df8004200dd00020e800031ff2f0081006100eb
:101e080001007000000e8800c901a800c921a800bf
:101e1800c941a800c881a800c801a800c8a1a90094
:101e2800c821a900c8c1a900c841a900ca41a90080
:101e3800ca21a800ca01a900d521a800d501a80077
:101e4800d561a800d541a800d5a1a800d581a800d2
:101e58004f04be000080fa00000006000c00fa00e3
:101e6800889fbe0050079800300320003bff070002
:101e78008000eb0021fa0700008fbe00020020005e
:101e8800a34724001e00be00b0f90700008fbe0063
:101e98002003200031ff070020079800024022009d
:101ea80043b724001e00be0069fa07000004be0004
:101eb8002e0090008000eb0010fa07000001be0021
:101ec8000800be00a1f907000001be0042f90700a2
:101ed800eff9070030079800410798005e0090006e
:101ee8008000eb004e0190000091b90002017800db
:101ef800be019000019ab9008401780003014100f5
:101f0800be0190000018b80001014100820078006d
:101f1800300798004107980030079800410798005b
:101f28003e009000ce0090004206200003002000f2
:101f38007bfa070030079800410798003e009000a0
:101f4800b00e88004f04be000080fa0000000600b2
:101f58000000fa00f00f200022fd070064fe0700d1
:101f68000080fa00000006000400fa0010012000ba
:101f7800010020008c000700000f7800f4fb070028
:101f88001007980090012000f4fe0700e10f5000b0
:101f980007003a00810880000000280000806000e7
:101fa8000000e00002003a00c802a8000a0037005a
:101fb80090012000e9fe07000000e00006003a005a
:101fc8008108800000002800008060000000e00018
:101fd80001003a00c802a9001e00780061006000f4
:101fe800004078000004e000060032001e00900067
:101ff80061006000004078000004e0000100320049
:1020080011e1a8009e007800648060000000e000f4
:10201800050032001e009000620060000000e00031
:102028000100320011e1a8009e0078007080600075
:102038000000e000050032001e0090007000600003
:102048000000e0000100320011e1a80000042000b7
:102058001e0060000000e000060032009e009000b4
:1020680000042000008060000000e0000100320051
:1020780011e1a8000080fa00000006000000fa0044
:1020880080012000b5fe0700e10f50000b003a0068
:1020980040032000b1fe070070ff0700c1e1a8005f
:1020a80000000000010e8000000028000080600091
:1020b8000000e000fbff320001003700c1e1a90089
:1020c8000080fa00000006000400fa002001200049
:1020d8000100200034000700000f78009cfb070077
:1020e800100798001e00780061006000004078002a
:1020f8000004e000080032001e009000610060004b
:10210800004078000004e000030032008000eb008b
:10211800800120002bfe07009e007800648060008c
:102128000000e000070032001e009000620060001e
:102138000000e000030032008000eb008001200076
:1021480020fe07009e007800708060000000e0001c
:10215800070032001e009000700060000000e000e0
:10216800030032008000eb008001200015fe07000c
:10217800000420001e0060000000e000080032009b
:102188009e00900000042000008060000000e00035
:10219800030032008000eb008001200009fe0700e8
:1021a8000080fa00000006000e00fa00881f780080
:1021b800500798006107980000c02f00f107200021
:1021c800008fbe005e009000ee009000000040000e
:1021d800818048003e014000ae8148000200be00f8
:1021e8002007980031079800f0c7b30032e0b70025
:1021f8002e009000be0090001004ba004807980016
:102208004e0090004f0478000080fa00000006009d
:102218000a00fa0020079800310798004207980042
:1022280000c02f00f1072000008fbe002e00900094
:10223800be00900000004000818048003e01400040
:10224800ae8148000200be002200200039f80700d5
:10225800013b800000002800008060000000e000d2
:10226800fbff3a004e0190002e009000be00900047
:1022780000004000818048003e024000ae824800d5
:102288000400be0044f80700013b8000000028005d
:10229800008060000000e000fbff3a000080fa00c8
:1022a800000006000000fa00c200200030002000f4
:1022b80001002000d6ff0700f20c2000400020009b
:1022c80001002000d2ff0700a20f200050002000cc
:1022d80001002000ceff0700f20f2000e0002000e0
:1022e80001002000caff070032002000f000200093
:1022f80001002000c6ff0700220020000001200086
:1023080001002000c2ff0700420020001001200049
:1023180001002000beff070042002000200120002d
:1023280001002000baff07000080fa000000060044
:102338000000fa0081e0a9008d40a9008d20a800c6
:1023480020a1270060088800800880000040a000c5
:102358000050a000800888001021a9001061a90081
:1023680010c1a90011a1a90011e1a9008cc0a80001
:10237800a086210070088800900880000040a00016
:102388000050a000900888001221a90012c1a900dd
:1023980013a1a90013e1a9008ce0a8008540a900b9
:1023a8008520a90084c0a90084e0a9000080fa0063
:1023b80000000600809fbe00821f78000000fa001f
:1023c80084c0a9004ac8bf000080fb00610060000b
:1023d80042168000e1ff2f008100610001007000bb
:1023e800401688004ac8bf000004a2000080fb0015
:1023f800004078004ae8b700604280000000e8002a
:102408006042880060428000e30f500002003600fe
:102418004c28ef0011e1a9000080fa004f01780074
:102428004f00be00004006003600f800809fbe0046
:10243800829fbe00849fbe00869fbe000000fa00f7
:1024480084e0a90013e1a9000a21ef00c8fa0700f7
:102458000080fa004f03be004f02be004f01be00cd
:102468004f00be003600f900004006000000fa00e8
:102478008540a9000080fa00004006003600f800f8
:10248800809fbe00829fbe00849fbe00869fbe00c4
:102498000000fa008520a90043fb07000080fa002d
:1024a8004f03be004f02be004f01be004f00be00ea
:1024b8003600f900004006000000fa000015800010
:1024c8000050a0000060a0000070a0000015880067
:1024d800a042a900001580000080a1000090a10082
:1024e80000158800a222ef00a4e2a90021158000af
:1024f800f00f2e0080806000003020000100700086
:10250800201588002115800000fc2f000080600045
:102518000020a00020158800301580000000a000d1
:102528000010a1000020a1000030a1003015880093
:10253800d001200040158800c622a800a1e2a8000a
:102548000080fa00000006000400fa00a022a8009b
:102558000000000000158000610060000000e0003d
:10256800fcff3200001480008000eb0063f80700d5
:102578003233230033052400b5f807000200200099
:1025880003482400f1f70700008fbe00a299290034
:10259800930e24001e00be00adf80700008fbe0099
:1025a8001e00be003af80700000078000080fa001c
:1025b800000006000400fa00000f780011079800d8
:1025c800f20c2000400020000100200010ff07004e
:1025d800c622ef00d222ef0011e1a80068fa070036
:1025e80053ff0700d7fc0700cdfd0700b2ff070027
:1025f80010002000a01688000400370054fe0700d1
:1026080059fe0700b0fe07009cfe0700f0022000fc
:1026180052fd07000000e000f8ff3200c9fc070087
:0c2628000000eb000080fa00000006003b
:020000040000fa
:102634002c0800001e00000000000000000800003c
:102644002c000000000000004a0800000200000006
:1026540002000000010000004c080000020000001d
:10266400000000004e08000002000000020000000c
:082674009a00000000000000c4
:020000040000fa
:10267c00f03fb1000180b10006003500ee03090007
:10268c0000000000403fb1000180b100fbff3d00a5
:10269c001000b000203fb00002003500008009009f
:0826ac00000000000000060020
:020000040000fa
:0200000400fffb
:04f800000000000004
:020000040000fa
:0200000401f009
:04000000f7bf000046
:020000040000fa
:0200000401f009
:04000400ff7f00007a
:020000040000fa
:0200000401f009
:040008007c7f0000f9
:020000040000fa
:0200000401f009
:04001400ffff0000ea
:020000040000fa
:0200000401f009
:04001800ffff0000e6
:00000001FF
