:020000040000fa
:080000000001040000000000f3
:020000040000fa
:100008009a0100009a0100009a0100009a0100007c
:100018009a0100009a0100009a0100009a0100006c
:100028009a0100009a0100009a0100009a0100005c
:100038009a0100009a01000076110000b01100003a
:100048009a010000da110000d21100009a010000a4
:100058009a0100009a0100009a0100009a0100002c
:100068009a0100009a0100009a0100009a0100001c
:100078009a0100009a0100009a0100009a0100000c
:100088009a0100009a0100009a0100009a010000fc
:100098009a0100009a0100009a0100009a010000ec
:1000a8009a0100009a0100009a0100009a010000dc
:1000b8009a0100009a0100009a0100009a010000cc
:1000c8009a0100009a0100009a0100009a010000bc
:1000d8009a0100009a0100009a0100009a010000ac
:1000e8009a0100009a0100009a0100009a0100009c
:0800f8009a0100009a010000ca
:020000040000fa
:100108009a0100009a0100009a0100009a0100007b
:100118009a0100009a0100009a0100009a0100006b
:100128009a0100009a0100009a0100009a0100005b
:100138009a0100009a01000076110000b011000039
:100148009a010000da110000d21100009a010000a3
:100158009a0100009a0100009a0100009a0100002b
:100168009a0100009a0100009a0100009a0100001b
:100178009a0100009a0100009a0100009a0100000b
:100188009a0100009a0100009a0100009a010000fb
:100198009a0100009a0100009a0100009a010000eb
:1001a8009a0100009a0100009a0100009a010000db
:1001b8009a0100009a0100009a0100009a010000cb
:1001c8009a0100009a0100009a0100009a010000bb
:1001d8009a0100009a0100009a0100009a010000ab
:1001e8009a0100009a0100009a0100009a0100009b
:0801f8009a0100009a010000c9
:020000040000fa
:100200006f8420000e9f20000e0188000000000077
:10021000000020000000e000020032000001200089
:10022000200288000c000700e024210001002000cb
:1002300011000700000020000000e0000200320072
:100240000000020000000000f811020000000000a1
:100250000040da000000fe004440a9000000200039
:100260000000e0000300320000002000a001880030
:100270004440a8000000060091018800800078003a
:100280000000eb0015003700e280400032a0b4000f
:100290009101ba00e280400032a0b4009102ba009d
:1002a000e280400032a0b4000002eb00472bde00e9
:1002b000f507b200602ce10004003a000059eb00a1
:1002c0008301e900fdff3e00040037006128e100e2
:1002d000010032000082eb00040007001101ba00a7
:1002e0000200e000e8ff3a00000006003159ba00c1
:1002f0008301e9000c0032002159ba008301e900b2
:10030000080032000400e00003003a00e2804000f0
:1003100032a0b400f5ff370011d9ba008301e9001b
:10032000faff3a008100e800e180400032a0b4000a
:10033000000006000040da000000fe003200f80075
:10034000910188000008bb00410424006210e10014
:1003500004003200000220000010e1000a003a0010
:1003600051042400013b88000500fc0051052000d9
:10037000313b8800a10a2000313b880061e7a800da
:1003800000000000000000003200f900000006003c
:100390003200f80060042400003b8800f2ff3700c0
:1003a0003200f8009101880041002400013b8800e0
:1003b0000208bb00ecff37003200f8009101880012
:1003c00051002400013b8800030120003218bb00cb
:1003d0008301e900fdff3a00e3ff370003f0a200cc
:1003e000889fbe008a9fbe008c1f78000201070014
:1003f000090133006450e1004f0032006420e10045
:100400005200320003826c0007003b000905d00057
:100410000306d000820f54000c065d000200390074
:1004200002003200890178000306780085825500b9
:1004300004003d000003fd008103fd008502ea0089
:100440008b854200840f720002003b0060001000a8
:10045000e08018006011b8000005eb007a28e10088
:100460000a00390006007800c75ddd00f707b2001a
:10047000878075002d003700828171000a017800a5
:10048000610560008180d1000080d3008502e90011
:10049000f9ff3b00060440008784480002003b004f
:1004a00060041400e0841c000988a30007003200e7
:1004b0008a81710082817100610164008904d10028
:1004c0000884d3008b05e800170037000978a300e3
:1004d00013003a000b00e000130034008b05e90024
:1004e0000804440089844c000a4474000978a3007d
:1004f0000d003a000b00e000070034008b05e90016
:100500000804440089844c0001003a000b002000dc
:100510000978a300f7ff32000001eb00020037006a
:10052000828171000a017800780007000cf0a700b2
:1005300001f0a000c10037006420e10002003a0091
:10054000838f6c00c10033000801be000200be00b2
:10055000ba003700889fbe008a9fbe008c1f7800bb
:10056000a5000700ac00330003866c006450e10076
:100570002e0032006420e100330032006150e100bf
:100580002f0032006120e1003100320085855500e6
:10059000eb07b00009002000080420000500370028
:1005a0000804440089844c000a003100060343001b
:1005b00087834b000001530081815b00f8ff33000b
:1005c0000203be000800a0000804440089844c0017
:1005d000f6ff3900c639dd008301730001003200e7
:1005e000130020008904d1000884d3000998a300d7
:1005f000050032000800a7000300a0008904d10014
:100600000884d3008b05e8008904d1000884d30056
:100610000001eb000281d2003c00070001f0a100c4
:100620000cf0a70001f0a000840037006420e10076
:10063000860032000801be000200be00f7ff37004e
:100640006120e100810032006000b800f3ff370054
:100650000000200001f82700f0ff3700839f6800aa
:100660000100e00002003d0060001000e080180082
:100670000300e00002003d0060011100e08119006c
:10068000a90007004f00e00002003b0060001000de
:10069000e0801800000006000001be0041000700d5
:1006a0000470a70003f0a10003f8a30013003a00b0
:1006b0006509b10010003200090035006928e10029
:1006c0000200350001002800000005000000400085
:1006d000818048008502e900fcff3a000000060026
:1006e000f88f4200050035008100d1000080d30062
:1006f0008502e800fcff3a00000006008000eb00e5
:10070000000005006011b800c20137008100200020
:10071000618055000b003d000b00200061fe2f00a2
:100720000100e1001d00340082817100610164005c
:100730008904d1000884d3000000e800faff3a00e1
:10074000710020006100640003007000020060007e
:100750000900320061044400e0844c000988a500cf
:10076000050032008b05e8006808e10002003a004d
:100770008904d1000884d300f20f20000258e10060
:1007800005003d00c75ddd00f907b20089807500f6
:1007900008007800000006000bf827008b007800a6
:1007a00000000500c70ade00f107b200f50fb20035
:1007b00008003200e1cf4200020032000170a000c8
:1007c00024000500810f70000100320004080500bc
:1007d00044000500810f700002003a00140005007b
:1007e0008502e9000000400081c04800fcff3b009a
:1007f0000170a000240005000004be00e9ff07000e
:100800000003be000405be000200be00e5ff0700b5
:10081000844f7500000006000200be006450e10035
:10082000050036006420e100020036000968a300dc
:1008300001003a000800be000160a0004f067800e9
:100840004f05be004f04be0000000600f0ff2f0061
:10085000f1ff2700f9ff3700889fbe008a9fbe0086
:100860008c1f7800e4ff0700ebff330003866c0069
:100870006450e100240032006420e10027003200cf
:100880006150e100220032006120e10021003200cd
:100890008b854200eb07b1000134b800003ab80084
:1008a0000804420089844a00013ab8000030b800c8
:1008b0008880400009014a00040033000000400025
:1008c00081804800020149008b05e900c909dd006b
:1008d000830170000100320013002000c814de0004
:1008e0004814dd004709de001200b200c808de002f
:1008f0000884700085ff070001f0a1000cf0a7003c
:1009000001f0a000cdff37006120e100cfff3200f1
:100910000801be000200be00f7ff37006150e10091
:10092000fcff3a00c9ff37006022b8000602200031
:100930000000d0008180d2000482d2008582d200e3
:100940000000a0000202520083825a00030031001e
:100950000202420083824a000000a1000603e9006f
:10096000f3ff3a0000000600889fbe008a9fbe0089
:1009700030044200b0844a0030054b0090854b00a3
:100980006000b1000898be000a90be000440e1007b
:1009900005c8e10006d0e10007d8e10002003100ff
:1009a000680040001008e8004f05be004f04be007c
:1009b00000000600889fbe008a9fbe003004be0073
:1009c0002005be000418540005985c0006185d0060
:1009d00007985d00110020000440e10005c8e10017
:1009e00006d0e10007d8e100010039008000eb00eb
:1009f000108810004f05be004f04be000000060026
:100a00001200fa00889fbe008a9fbe008c9fbe0025
:100a1000e0b79f00f1b79f0082bf9f0093bf9f0088
:100a20000605be000404be000000eb00d0b79f0026
:100a3000c0b79f00b0b79f00a0b79f0090b79f00be
:100a40000006eb005fb19700cfb097008201410034
:100a50003fb097000200e00004003d0037000700af
:100a60007e805700c0ff07000300370033000700f7
:100a70007e805700cfff0700dfb697000d00e00033
:100a80000c0035006fb29700ffb297000fbb9700c4
:100a90009fbb970010002000010020006011b800eb
:100aa000000272008182720002037300838373006c
:100ab0001b0007000c06e80001042000810f56000f
:100ac000e0ff3a000d00e00004003d000802be0017
:100ad0000a03be007e805700a3ff07005fa89700af
:100ae0000000e00005003a001fb29700afb2970087
:100af0003fb39700cfb39700090007006fb097008e
:100b0000ffb097000fb997009fb997004f06be003e
:100b10004f05be004f04be000080fa000000060032
:100b20000100070000000600a4b79f00b5b79f00b2
:100b3000c6b79f00d7b79f00000006004f09de0030
:100b400082817100b3b79f004f01de0081804000b9
:100b500082807000a1b79f008fb097004f09de0020
:100b6000000040000200700090b79f007fa897002f
:100b70004f01de00818040008280700081b79f00bd
:100b80000d0007004f3ade00000040000400700036
:100b9000f0af9f00080007000402420085824a006f
:100ba00006034b0087834b00dfff07000802be00ef
:100bb0000a03be00000006002fb29700bfb29700e4
:100bc0004fb39700dfb3970000000600881f78003e
:100bd00018002000881f780089ff07008f87e90030
:100be0004f04780000000600801feb0084ff070020
:100bf0008f87e90000000600889fbe008a9fbe0024
:100c0000e00f5000e08f5800e00f5900e08f5900ce
:100c10000c003d006044b8006055b800000054006e
:100c200081805c0002015d0083815d00180020006e
:100c30001500070008003d00180007000004eb0045
:100c4000050037000004eb000f00070002003d0024
:100c50001200070018002000dcff07000800e00079
:100c6000060032006022b8006033b8000000520075
:100c700081805a0002015b0083815b004f05be004a
:100c80004f04be0000000600e00f5200e08f5a0043
:100c9000e00f5b00e08f5b00000006006044b800de
:100ca0006055b8000402540085825c0006035d00b4
:100cb00087835d0000000600889fbe008a9fbe00fb
:100cc0008c1f7800e00f5000e08f5800e00f5900b3
:100cd000e08f59000d003d006044b8006055b80039
:100ce0000000540081805c0002015d0083815d0092
:100cf0001c0020000820e10009a8e1000ab0e10082
:100d00000bb8e1000d003d00080037000006eb00c5
:100d1000e00f5200e08f5a00e00f5b00e08f5b00b5
:100d200006003d006044b8006055b800040254005d
:100d300085825c0006035d0087835d00aaff0700d3
:100d40000c00e000060032006022b8006033b800fa
:100d50000000520081805a0002015b0083815b0029
:100d60004f0678004f05be004f04be00000006008d
:100d7000889fbe008a9fbe008c1f78000006eb0093
:100d8000e00f5000e08f5800e00f5900e08f59004d
:100d900007003d006044b8006055b80000005400f2
:100da00081805c0002015d0083815d001c002000e9
:100db000e00f5200e08f5a00e00f5b00e08f5b0015
:100dc00007003d006044b8006055b80004025400bc
:100dd00085825c0006035d0087835d000c00a20035
:100de0003b0007000c00e000060032006022b80063
:100df0006033b8000000520081805a0002015b009d
:100e000083815b004f0678004f05be004f04be0093
:100e100000000600889fbe008a9fbe00008270000e
:100e20000402710004827100260032000004be003a
:100e30000200be006011b8006b092000950220007e
:100e40000182cf000a0039000541b1000082cf00c5
:100e5000070039000541b1000982cf0004003900c4
:100e60000541b1000882cf00010039000541b10001
:100e700005425200120032000a003b0082817100dc
:100e8000610164008100d1000080d3008984d30017
:100e90000884d3008b05e8000442e800f7ff3a001d
:100ea000070037000804440089844c000000480013
:100eb000818048008b05e9000442e900f9ff3a000f
:100ec00012fe07004f05be004f04be0000000600e2
:100ed000889fbe008a9fbe008c9fbe000404b8009d
:100ee0000506b8008904460060854e000606b80075
:100ef0000a054600e0854e000706b8008b0546004f
:100f0000040eb800890446000a854e00e0854d00b5
:100f1000050eb8000a0546008b854e00060eb80087
:100f20008b0546000416b8000a0546008b854e0066
:100f30000516b8008b054600041eb8008b05460058
:100f40000800be000a01be004f06be004f05be00ed
:080f50004f04be000000060082
:020000040000fa
:100f58000000fa00f04180000080fa00000006005e
:100f68000000fa00c04180000080fa00000006007e
:100f78000000fa002428ef000080fa0000000600b4
:100f88000600fa004000200001002000520407007b
:100f98000000e8008000eb000001be0000482800c7
:100fa800e1012000abfd0700100798002107980019
:100fb8001e019000ae0190004418dd00cc10de0048
:100fc800810070004410dd006011b8000203be000b
:100fd8000002be0000402200410f20006011b8004e
:100fe80003ff0700000078000000e900a010880057
:100ff8000fe2a9000ee2a9000ec2a8000de2a800a7
:101008000f42a8000d42a8000000eb00000f780076
:10101800070037001e007800800040006082200032
:10102800008040008000eb00010878001e0fe800f7
:101038001e007800e70f5000f6ff34000080fa0029
:10104800000006000200fa00000f7800000000000f
:101058007110800000202000008060000000e00087
:10106800fbff3a009e007800811088000080fa009b
:10107800000006000a00fa002007980031079800cf
:1010880042079800f14180002e00900080804000c7
:101098004e009000008040000080e800000f7800bb
:1010a80020002000a0168800500020000100200029
:1010b80009040700000040008000eb006011b80040
:1010c80004402200450f20006033b80026ff0700c7
:1010d80004242400f50020006033b800c4fe070093
:1010e8000000be00dd040700f00f2000d5ff070058
:1010f800f00f2000d3ff07002e009000d1ff07005b
:101108004e0090000080e800ceff0700f04180000c
:10111800ccff07000000eb00100798001100370013
:101128001e00900000004000be00900000804000bb
:1011380010007800c3ff07001e0090000000400068
:10114800be00900000804000900078001e007800eb
:1011580000804000000f78001e0090000000e800aa
:10116800100798009e0090004e009000808f50005d
:10117800ebff39009e007800001020000001780085
:10118800110009008200d8008000fd00f10f200046
:1011980000805000abff070010002000a016880058
:1011a8000080fa00000006000000fa002104800018
:1011b80000082000008060000000e00027003a00de
:1011c80013e1a9000a21ef0020418000911080005e
:1011d8000001400060822000000041000108780002
:1011e80031418000f00f2000808f50000200320053
:1011f8002428ef001900370020418000e10f50003b
:1012080006003a0041418000f00f2000808f500016
:10121800020032002428ef0010003700204180002f
:10122800e30f500002003a0060418000c04188008e
:10123800204180000000e800204188002041800013
:1012480080007800c041800063004000808f50001b
:10125800010036000300070013e1a8000080fa002f
:10126800000006000400fa002428ef005041800026
:10127800b041880070418000d0418800c0418000a2
:101288006300400080004000608220000080400031
:1012980010007800e04188000000eb00000f7800a3
:1012a8000000eb0010079800140037001e009000a3
:1012b80065004000800040006082200000804000ff
:1012c800900078001e00900000014000008420007b
:1012d80000004100010878001e00900080004000d6
:1012e8000084200000804000100078001e0f40009d
:1012f8001e0090000000e80010079800c041800020
:101308008080e9001e009000808f5000e7ff3e00bb
:10131800b1418000c041800080804000d041800001
:10132800008040001e0f40009e007800f00f200053
:1013380000017800110009008280d8008000fd00bb
:10134800f10f2000008f5000e04180009e0f5000f8
:1013580002003a004900070011003700b14180003f
:10136800e00f2000808f50000d00320000012000a7
:1013780001002000580307000000e00008003200c8
:101388003000200017000700b0418000e40047004b
:101398000001eb0037ff0700f00f200011000700e5
:1013a8000000eb0010079800090037001e009000ad
:1013b8008000400060822000008040008000eb0038
:1013c800010878001e0090000000e800100798004f
:1013d8001e009000e70f5000f4ff36000080fa006e
:1013e800000006000200fa00000f78001e007800d6
:1013f8000000e00005003a00f141800000042000f0
:1014080001007000f04188001a0037001e007800c3
:10141800e30f500004003a00f04180000040a000b3
:10142800f0418800130037001e007800e10f5000db
:1014380004003a00f04180000020a000f04188003c
:101448000c0037001e007800e20f500004003a003c
:10145800f04180000000a000f0418800050037003e
:10146800f00f20009e007800808f500001003a00a5
:101478003e28ef000080fa00000006001200fa0083
:10148800300020000100200013030700b141800054
:10149800810f500004003200b1418000e00f2000ad
:1014a800808f500014013a00d0418000e10f5000b5
:1014b8000e003a00b1418000e00f2000808f5000fc
:1014c8000a0032000001200001002000020307008a
:1014d8000000e00005003200b0418000e80047004d
:1014e8000001eb00e3fe070003013700d041800054
:1014f800e20f500034003a00b1418000e00f2000b4
:10150800808f5000300032000001200001002000d0
:10151800f10207000000e0002b00320000428000ca
:10152800f70f50000b003e00004280008000eb00e7
:10153800e9020700100798009e00900041079800f4
:10154800b0418000e800470012002000c9fe0700f3
:10155800e900370000428000f70f50001100360004
:101568000142800040032000808f50000d003e00a3
:1015780000428000520107002007980000428000c6
:1015880050079800ae00900061079800b0418000b5
:10159800ea00470022002000b6fe07000000000015
:1015a800d50037000000eb008eff0700b041800037
:1015b800ee0047000001eb00aefe0700f00f200030
:1015c80088ff0700cc003700d0418000e30f5000af
:1015d80032003a0000428000f70f500005003e003c
:1015e80012428000004280008000eb00d402070015
:1015f8000d00370000428000f70f50000800360049
:101608000142800040032000808f500004003e000b
:101618001142800000428000d1000700020037001c
:101628000000eb006fff0700b1418000e00f2000d1
:10163800808f50000f0032000001200001002000c0
:10164800a5020700e20f50000a003a00014280009c
:101658001042800071079800000f9800b041800088
:10166800ee0047002200200082fe0700f00f200055
:101678005cff070000428000e40f500001003a00c0
:101688003ffe07000142800030032000808f500099
:1016980099003a006f01070097003700d041800099
:1016a800e40f500019003a00d04180000042880041
:1016b8000000eb00000f78000b0037001e007800d8
:1016c80080004000008420000080400090007800e6
:1016d8001e00780000014000208420000000410026
:1016e800010878001e0fe8009e007800c0418000c5
:1016f8000080e900808f5000f0ff390011002000c1
:10170800c0022000960007007b003700d04180000f
:10171800e50f50002f003a00c0022000e800070043
:10172800e10f500019003a008000eb00c0022000d1
:101738008b00070000428000f70f500005003e00b4
:1017480022428000104280008000eb007c020700eb
:101758001000370000428000f70f500008003600e4
:101768000142800040032000808f500004003e00aa
:1017780021428000104280007900070005003700f0
:101788000000eb0017ff0700020037000000eb0025
:1017980014ff0700b1418000e00f2000808f500047
:1017a8000900320000012000010020004a02070061
:1017b800e20f500004003a00b0418000f2004700f8
:1017c8000001eb002bfe0700f00f200005ff0700cb
:1017d80049003700d0418000e60f500017003a005a
:1017e8007c02070046000700b1418000e00f20009e
:1017f800808f50000e003200000120000100200000
:1018080035020700e20f500009003a0030002000be
:1018180001002000300207003007980072004700de
:101828000001eb00800078003e00900011fe0700e8
:10183800f00f2000ebfe07002f003700d141800099
:1018480030082000808f50001a003a00c0022000a3
:101858009b0007000000e000040032008000eb005d
:10186800c00220003e000700020037000000eb0025
:10187800dcfe0700b1418000e00f2000808f50009f
:1018880009003200000120000100200012020700b8
:10189800e20f500004003a00b0418000f200470017
:1018a8000001eb00f3fd0700f00f2000cdfe07005c
:1018b80011003700b1418000e00f2000808f5000f8
:1018c8000b00320000012000010020000202070086
:1018d800e20f500006003a000000eb00c1fe0700ce
:1018e800b0418000f20047000001eb00e1fd070075
:1018f800f00f2000bbfe07000080fa000000060081
:101908000000fa000228ef000428ef000628ef0084
:101918000828ef000e28ef001028ef001628ef0027
:101928001828ef0000022000d04088001c28ef0093
:10193800304080005040880040408000604088006f
:1019480000012000f04088002000200000418800ad
:1019580090012000104188000080fa000000060075
:101968000400fa00000f7800110798001e007800a4
:101978006101b80080fe2f00f1ff2f000200400037
:1019880083804800c201200003002000820f50001d
:10199800838f580045003e00006001002500370095
:1019a8002700370043003700420037004100370066
:1019b800400037002500370027003700290037008e
:1019c8002b0037003b0037003a003700390037005a
:1019d8003800370037003700360037003500370049
:1019e8003400370033003700320037002300370057
:1019f800300037002f00370023003700250037005c
:101a080027003700020037000400370006003700bf
:101a18009e009000f1408800270037009e0090004b
:101a280001418800240037009e0090001141880081
:101a3800210037001e009000104088001e0037006b
:101a48001e009000204088001b0037001e009000f8
:101a580050408800180037001e0090006040880041
:101a6800150037001e0090007040880012003700f3
:101a78001e009000804088000f0037001e00900074
:101a8800b04088000c0037001e009000c04088005d
:101a9800090037001e009000d0408800060037007b
:101aa8001e009000e040880003003700000000009e
:101ab80001003700000000000080fa000000060066
:101ac8000200fa00000f78001e0078006101b800db
:101ad80080fe2f00f1ff2f000200400083804800a5
:101ae800c201200003002000820f5000838f58009d
:101af80040003e000060010022003700230037004c
:101b08003c0037003b0037003a0037003900370007
:101b1800200037002100370022003700230037005b
:101b28003400370033003700220037002300370025
:101b3800300037002f0037002e0037002d00370007
:101b48002000370021003700220037002900370025
:101b58002800370021003700220037002300370013
:101b6800020037000300370004003700f04080000f
:101b780021003700004180001f003700104180001d
:101b88001d003700104080001b00370020408000f7
:101b9800190037005040800017003700604080006f
:101ba8001500370070408000130037008040800027
:101bb80011003700304080000f003700404080009f
:101bc8000d003700904080000b003700a0408000d7
:101bd80009003700b040800007003700c04080008f
:101be80005003700d040800003003700e040800047
:101bf800010037000000eb000080fa00000006003a
:101c08000200fa00000f7800000420009e0078000f
:101c1800808f500002003a00300020000b0037008f
:101c28001e007800f00f500002003a00200020004b
:101c3800060037001e007800e40f500002003a004a
:101c480010002000010037000000eb000080fa00bf
:101c5800000006000600fa00889fbe00c1e1a90046
:101c68003003200096ff07008000eb00a3fa07006e
:101c7800008fbe0002002000a34724001e00be0003
:101c880032fa0700008fbe00200320008cff0700f7
:101c9800200798000240220043b724001e00be001f
:101ca800ebfa07000004be002e0090008000eb0055
:101cb80092fa07000001be000800be0023fa0700e0
:101cc8000200200003f82300c2f9070070fa070099
:101cd80000007800200e8800c221ef00d621ef0016
:101ce800c1a1a900000e80000000a1000010a10001
:101cf800000e8800000e80000040a1000050a100e6
:101d08000060a1000070a100000e88002e00900065
:101d1800bbff070000407800634060000080fb00c4
:101d2800630060004200dd00020e800031ff2f00da
:101d38008100610001007000000e8800c901a80040
:101d4800c921a800c941a800c881a800c801a800e5
:101d5800c8a1a900c821a900c8c1a900c841a900f3
:101d6800ca41a900ca21a800ca01a900d521a80012
:101d7800d501a800d561a800d541a800d5a1a80023
:101d8800d581a8004f04be000080fa0000000600bc
:101d98000c00fa00889fbe0050079800300320000e
:101da80047ff07008000eb0054fa0700008fbe00d1
:101db80002002000a34724001e00be00e3f907002c
:101dc800008fbe00200320003dff07002007980079
:101dd8000240220043b724001e00be009cfa070000
:101de8000004be002e0090008000eb0043fa0700bc
:101df8000001be000800be00d4f907000001be00c3
:101e080075f9070022fa0700300798004107980083
:101e18005e0090008000eb004e0190000091b90038
:101e280002017800be019000019ab900840178008f
:101e380003014100be0190000018b80001014100f3
:101e48008200780030079800410798003007980012
:101e5800410798003e009000ce0090004206200006
:101e680003002000aefa07003007980041079800e9
:101e78003e009000b00e88004f04be000080fa00bb
:101e8800000006000000fa00f00f200055fd0700d2
:101e98000080fa00000006000400fa00100120008b
:101ea800010020008c000700000f780028fc0700c4
:101eb800100798009001200001ff0700e10f500073
:101ec80007003a00810880000000280000806000b8
:101ed8000000e00002003a00c802a8000a0037002b
:101ee80090012000f6fe07000000e00006003a001e
:101ef8008108800000002800008060000000e000e9
:101f080001003a00c802a9001e00780061006000c4
:101f1800004078000004e000060032001e00900037
:101f280061006000004078000004e0000100320019
:101f380011e1a8009e007800648060000000e000c5
:101f4800050032001e009000620060000000e00002
:101f58000100320011e1a8009e0078007080600046
:101f68000000e000050032001e00900070006000d4
:101f78000000e0000100320011e1a8000004200088
:101f88001e0060000000e000060032009e00900085
:101f980000042000008060000000e0000100320022
:101fa80011e1a8000080fa00000006000000fa0015
:101fb80080012000c2fe0700e10f50000b003a002c
:101fc80040032000befe070071ff0700c1e1a80022
:101fd80000000000010e8000000028000080600062
:101fe8000000e000fbff320001003700c1e1a9005a
:101ff8000080fa00000006000400fa00200120001a
:102008000100200034000700000f7800d0fb070013
:10201800100798001e0078006100600000407800fa
:102028000004e000080032001e009000610060001b
:10203800004078000004e000030032008000eb005c
:102048008001200046fe07009e0078006480600042
:102058000000e000070032001e00900062006000ef
:102068000000e000030032008000eb008001200047
:102078003bfe07009e007800708060000000e000d2
:10208800070032001e009000700060000000e000b1
:10209800030032008000eb008001200030fe0700c2
:1020a800000420001e0060000000e000080032006c
:1020b8009e00900000042000008060000000e00006
:1020c800030032008000eb008001200024fe07009e
:1020d8000080fa00000006000e00fa00881f780051
:1020e800500798006107980000c02f00f1072000f2
:1020f800008fbe005e009000ee00900000004000df
:10210800818048003e014000ae8148000200be00c8
:102118002007980031079800f0c7b30032e0b700f5
:102128002e009000be0090001004ba0048079800e6
:102138004e0090004f0478000080fa00000006006e
:102148000a00fa0020079800310798004207980013
:1021580000c02f00f1072000008fbe002e00900065
:10216800be00900000004000818048003e01400011
:10217800ae8148000200be00220020006df8070072
:10218800013b800000002800008060000000e000a3
:10219800fbff3a004e0190002e009000be00900018
:1021a80000004000818048003e024000ae824800a6
:1021b8000400be0078f80700013b800000002800fa
:1021c800008060000000e000fbff3a000080fa0099
:1021d800000006000000fa00c200200030002000c5
:1021e80001002000d6ff0700f20c2000400020006c
:1021f80001002000d2ff0700a20f2000500020009d
:1022080001002000ceff0700f20f2000e0002000b0
:1022180001002000caff070032002000f000200063
:1022280001002000c6ff0700220020000001200056
:1022380001002000c2ff070042002000100120001a
:1022480001002000beff07004200200020012000fe
:1022580001002000baff07000080fa000000060015
:102268000000fa0081e0a9008d40a9008d20a80097
:1022780020a1270060088800800880000040a00096
:102288000050a000800888001021a9001061a90052
:1022980010c1a90011a1a90011e1a9008cc0a800d2
:1022a800a086210070088800900880000040a000e7
:1022b8000050a000900888001221a90012c1a900ae
:1022c80013a1a90013e1a9008ce0a8008540a9008a
:1022d8008520a90084c0a90084e0a9000080fa0034
:1022e80000000600809fbe00821f78000000fa00f0
:1022f80084c0a90042c8bf000080fb0061006000e4
:1023080042168000e1ff2f0081006100010070008b
:102318004016880042c8bf000004a2000080fb00ed
:102328000040780042e8b700204280000000e80042
:102338002042880020428000e30f5000020036004f
:102348004428ef0011e1a9000080fa004f0178004d
:102358004f00be00004006003600f800809fbe0017
:10236800829fbe00849fbe00869fbe000000fa00c8
:1023780084e0a90013e1a9000a21ef00fcfa070094
:102388000080fa004f03be004f02be004f01be009e
:102398004f00be003600f900004006000000fa00b9
:1023a8008540a9000080fa00004006003600f800c9
:1023b800809fbe00829fbe00849fbe00869fbe0095
:1023c8000000fa008520a90077fb07000080fa00ca
:1023d8004f03be004f02be004f01be004f00be00bb
:1023e8003600f900004006000400fa00000f7800eb
:1023f80011079800f20c2000400020000100200086
:102408004fff0700defa070095ff07003cfd0700b5
:1024180010fe0700c622ef00d222ef0011e1a8004b
:1024280010002000a01688000400370095fe070061
:1024380099fe0700f0fe0700dcfe0700f00220000e
:102448009ffd07000000e000f8ff32002cfd0700a8
:0c2458000000eb000080fa00000006000d
:020000040000fa
:10246400f03fb1000180b10006003500ee03090021
:1024740000000000403fb1000180b100fbff3d00bf
:102484001000b000203fb0000200350000800900b9
:0824940000000000000006003a
:020000040000fa
:10249c00240800001e0000000000000000080000de
:1024ac0024000000000000004208000002000000b0
:1024bc0002000000010000004408000002000000bf
:0824cc00000000000000000008
:020000040000fa
:0200000400fffb
:04f800000000000004
:020000040000fa
:0200000401f009
:04000000f7bf000046
:020000040000fa
:0200000401f009
:04000400ff7f00007a
:020000040000fa
:0200000401f009
:040008007c7f0000f9
:020000040000fa
:0200000401f009
:04001400ffff0000ea
:020000040000fa
:0200000401f009
:04001800ffff0000e6
:00000001FF
